:1000000034C0000058C0000056C0000054C00000BA
:1000100052C0000050C000004EC000004CC00000A4
:100020004AC0000048C0000046C0000044C00000B4
:1000300042C0000040C000003EC000003CC00000C4
:100040003AC0000038C0000047C7000071C7000078
:1000500032C0000030C000002EC000002CC00000E4
:100060002AC0000028C000003B0611241FBECFEFAD
:10007000D8E0DEBFCDBF11E0A0E0B1E0E8EAF5E1F5
:1000800002C005900D92AE30B107D9F711E0AEE095
:10009000B1E001C01D92A236B107E1F710E0CAE657
:1000A000D0E003C02297FE01F9D7C836D107D1F7B7
:1000B000EED50C94D20AA4CFEF92FF920F931F9328
:1000C0007B018C0120E030E040E05FE4D9D288235E
:1000D0007CF0C801B70120E030E040E05FE45ED191
:1000E00025D39B01AC01205030404040504805C012
:1000F000C801B7011BD39B01AC01B901CA011F9113
:100100000F91FF90EF900895A0E0B0E0E9E8F0E0F3
:100110008CC7DC012B01FA019C91923008F439C1A3
:10012000EB018881823008F433C1943069F4843063
:1001300009F02FC111969C9111978981981709F4A4
:1001400028C1A5E0B1E025C1843009F421C1823085
:10015000A9F4923009F01DC19A01AD0188E0EA01CD
:100160000990AE01E90109929E018150C1F7E201B7
:10017000898111969C918923818308C1923009F469
:1001800007C112962D903C901397EB018A819B81B9
:100190001496AD90BD90CD90DC901797EC80FD80CB
:1001A0000E811F819101281B390BB90137FF04C053
:1001B00066277727621B730B603271050CF061C0F4
:1001C000121613066CF537014801062E04C09694EA
:1001D0008794779467940A94D2F721E030E040E066
:1001E00050E004C0220F331F441F551F6A95D2F7F9
:1001F00021503040404050402E213F214023512388
:10020000211531054105510521F021E030E040E0A4
:1002100050E079018A01E628F728082919293CC00D
:10022000232BD1F1260E371E35014601062E04C0C0
:1002300096948794779467940A94D2F721E030E0FB
:1002400040E050E004C0220F331F441F551F6A9541
:10025000D2F721503040404050402A213B214C21D0
:100260005D21211531054105510521F021E030E0E6
:1002700040E050E059016A01A628B728C828D928CB
:100280000BC0821593052CF01C01AA24BB24650128
:1002900003C0EE24FF24870111969C91D201119690
:1002A0008C91981709F445C0992339F0A80197015A
:1002B0002A193B094C095D0906C0A60195012E19B2
:1002C0003F09400B510B57FD08C011823382228237
:1002D00024833583468357831DC081E08183338225
:1002E000228288279927DC01821B930BA40BB50B74
:1002F00084839583A683B7830DC0220F331F441FC9
:10030000551F2483358346835783828193810197C8
:10031000938382832481358146815781DA01C90123
:100320000197A109B1098F5F9F4FAF4FBF4328F3DA
:100330000BC0918333822282EA0CFB1C0C1D1D1D15
:10034000E482F5820683178383E0808324813581EC
:100350004681578157FF1AC0C901AA2797FDA0956A
:10036000BA2F81709070A070B070569547953795F0
:100370002795822B932BA42BB52B84839583A6835F
:10038000B78382819381019693838283DF0101C0C9
:10039000D201CD01CDB7DEB7E2E163C6A0E2B0E0A5
:1003A000E3EDF1E04EC669837A838B839C832D83D2
:1003B0003E834F835887E9E0EE2EF12CEC0EFD1EB4
:1003C000CE010196B701D8D28E010F5E1F4FCE012C
:1003D0000596B801D1D28A8991E089278A8BC70115
:1003E000B801AE01475E5F4F8FDEF1D1A096E6E027
:1003F00044C6A0E2B0E0EEEFF1E023C669837A8361
:100400008B839C832D833E834F835887F9E0EF2EA7
:10041000F12CEC0EFD1ECE010196B701ADD28E017E
:100420000F5E1F4FCE010596B801A6D2C701B801D5
:10043000AE01475E5F4F68DECAD1A096E6E01DC6FA
:10044000A0E2B0E0E5E2F2E0F0C569837A838B8355
:100450009C832D833E834F835887CE010196BE0136
:10046000675F7F4F89D2CE010596BE016F5E7F4FD9
:1004700083D29985923088F089898230C8F094308F
:1004800019F4823051F404C0843029F4923081F49C
:1004900085E091E0C6C0923049F420E09A858A89CF
:1004A000981321E02A87CE010996BBC0823049F417
:1004B00020E09A858A89981321E02A8BCE01419603
:1004C000B0C02D843E844F8458886D887E888F8884
:1004D000988CEE24FF248701AA24BB24650140E008
:1004E00050E060E070E0E0E0F0E0C1018170907009
:1004F000892BE9F0E60CF71C081D191D9A01AB01C8
:100500002A0D3B1D4C1D5D1D80E090E0A0E0B0E099
:10051000E614F7040805190520F481E090E0A0E056
:10052000B0E0BA01A901480F591F6A1F7B1FAA0C2E
:10053000BB1CCC1CDD1C97FE08C081E090E0A0E055
:10054000B0E0A82AB92ACA2ADB2A3196E032F1059E
:1005500049F0660C771C881C991C56944794379474
:100560002794C3CFFA85EA892B893C898B859C85A2
:10057000280F391F2E5F3F4F17C0CA01817090703E
:10058000892B61F016950795F794E79480E090E049
:10059000A0E0B0E8E82AF92A0A2B1B2B769567958C
:1005A000579547952F5F3F4F77FDE7CF0CC0440F1E
:1005B000551F661F771F17FD4160EE0CFF1C001FC3
:1005C000111F21503040403090E0590790E06907FA
:1005D00090E4790760F32B8F3C8FDB01CA018F77A2
:1005E0009070A070B07080349105A105B10561F4E0
:1005F00047FD0AC0E114F1040105110529F0405C32
:100600005F4F6F4F7F4F40781A8EFE1711F081E0D9
:100610008A8F4D8F5E8F6F8F78A383E0898FCE0195
:100620004996D5D0A096E2E11CC5A8E1B0E0EAE188
:10063000F3E007C569837A838B839C832D833E8394
:100640004F83588789E0E82EF12CEC0EFD1ECE0179
:100650000196B70191D18E010F5E1F4FCE01059615
:10066000B8018AD18985823038F08989823020F0BA
:10067000C701B801F9D101C08FEF6896E6E0FDC46B
:10068000A8E1B0E0E5E4F3E0DCC469837A838B831E
:100690009C832D833E834F83588789E0E82EF12C7D
:1006A000EC0EFD1ECE010196B70166D18E010F5EE4
:1006B0001F4FCE010596B8015FD18985823038F091
:1006C0008989823020F0C701B801CED101C08FEFF7
:1006D0006896E6E0D2C4A8E1B0E0E0E7F3E0B1C498
:1006E00069837A838B839C832D833E834F835887D2
:1006F00089E0E82EF12CEC0EFD1ECE010196B7012B
:100700003BD18E010F5E1F4FCE010596B80134D14B
:100710008985823038F08989823020F0C701B8019C
:10072000A3D101C081E06896E6E0A7C4ACE0B0E0E8
:10073000EBE9F3E08AC469837A838B839C83CE01DF
:100740000196BE016B5F7F4F17D18D81823061F1C1
:10075000823050F1843021F48E81882351F12EC0F3
:100760002F81388537FD20C06E812F3131051CF077
:100770006623F9F023C08EE190E0821B930B29855C
:100780003A854B855C8504C05695479537952795E6
:100790008A95D2F76623B1F0509540953095219512
:1007A0003F4F4F4F5F4F0EC020E030E040E050E041
:1007B00009C02FEF3FEF4FEF5FE704C020E030E0CC
:1007C00040E050E8B901CA012C96E2E05AC4DF9239
:1007D000EF92FF920F931F93FC01E480F580068156
:1007E0001781D1808081823048F480E090E0A0E1E0
:1007F000B0E0E82AF92A0A2B1B2BA5C0843009F4A3
:100800009FC0823021F4EE24FF24870105C0E1144B
:10081000F1040105110519F4E0E0F0E096C06281F1
:1008200073819FEF623879070CF05BC022E83FEFDD
:10083000261B370B2A3131052CF020E030E040E058
:1008400050E02AC0B801A701022E04C07695679532
:10085000579547950A94D2F781E090E0A0E0B0E088
:1008600004C0880F991FAA1FBB1F2A95D2F70197B2
:10087000A109B1098E219F21A023B1230097A105D1
:10088000B10521F081E090E0A0E0B0E09A01AB0179
:10089000282B392B4A2B5B2BDA01C9018F779070FB
:1008A000A070B07080349105A105B10539F427FF1F
:1008B00009C0205C3F4F4F4F5F4F04C0215C3F4F4A
:1008C0004F4F5F4FE0E0F0E02030A0E03A07A0E0BB
:1008D0004A07A0E45A0710F0E1E0F0E079018A014C
:1008E00027C06038710564F5FB01E158FF4FD8015E
:1008F000C7018F779070A070B07080349105A1050A
:10090000B10539F4E7FE0DC080E490E0A0E0B0E06E
:1009100004C08FE390E0A0E0B0E0E80EF91E0A1FEB
:100920001B1F17FF05C016950795F794E79431969E
:1009300087E016950795F794E7948A95D1F705C057
:10094000EE24FF248701EFEFF0E06E2F6795662716
:100950006795902F9F77D794DD24D7948E2F869517
:10096000492F462B582F5D29B701CA011F910F91BE
:10097000FF90EF90DF900895FC01DB0140815181F1
:100980002281622F6F7770E0221F2227221F93811E
:10099000892F880F822B282F30E0991F9927991FC4
:1009A00011969C93119721153105A9F54115510513
:1009B0006105710511F482E037C082E89FEF13965C
:1009C0009C938E9312979A01AB0167E0220F331F1D
:1009D000441F551F6A95D1F783E08C930DC0220FF9
:1009E000331F441F551F12968D919C9113970197A9
:1009F00013969C938E931297203080E0380780E006
:100A0000480780E4580758F314962D933D934D936F
:100A10005C93179708952F3F310579F441155105DF
:100A20006105710519F484E08C93089564FF03C097
:100A300081E08C9312C01C9210C02F573040139647
:100A40003C932E93129783E08C9387E0440F551FBD
:100A5000661F771F8A95D1F7706414964D935D9346
:100A60006D937C93179708951F93DC01FB019C9174
:100A7000923008F447C08081823008F443C094303B
:100A800051F411961C91843099F58181682F70E0A2
:100A9000611B71093FC0843021F0923031F4823003
:100AA000B9F18181882389F12DC011961C9111978C
:100AB0008230F1F081811817D9F412962D913C9172
:100AC0001397828193818217930794F0281739072F
:100AD000BCF014968D919D910D90BC91A02D248118
:100AE000358146815781281739074A075B0718F473
:100AF000112341F00AC082179307A407B50740F4F9
:100B0000112319F061E070E005C06FEF7FEF02C0C4
:100B100060E070E0CB011F910895DF93CF9300D088
:100B20000F92CDB7DEB79A8389836B83E981FA810F
:100B30008B818083E981FA8112821182E981FA81B5
:100B40008FEF90E094838383E981FA818FEF90E0C7
:100B500096838583E981FA81108617820F900F9022
:100B60000F90CF91DF9108950F931F93DF93CF9351
:100B700000D0CDB7DEB79A8389832FD0E981FA817F
:100B800080818F5F4ED039D0882F90E0E981FA8143
:100B900092838183E981FA8181819281982F8827CC
:100BA000E981FA8192838183E981FA81018112814D
:100BB0002ED0882F90E0800F911FE981FA819283D7
:100BC000818313D0E981FA81818192810F900F9006
:100BD000CF91DF911F910F91089584EA8093BC001B
:100BE0008091BC0087FFFCCF089585ED8093BC0009
:100BF0008091BC0084FDFCCF089584EC8093BC0000
:100C00008091BC0087FFFCCF8091BB00089584E8F1
:100C10008093BC008091BC0087FFFCCF8091BB001B
:100C200008958093BB0084E88093BC008091BC0051
:100C300087FFFCCF0895DF93CF9300D000D0CDB7CE
:100C4000DEB79A8389837C836B8389819A81813023
:100C5000910551F48B819C812FEF8F3F920721F4F6
:100C60008EE091E060E459DF0F900F900F900F90AD
:100C7000CF91DF910895DF93CF93CDB7DEB781E0B9
:100C800090E06FEF7FEFD7DFCF91DF910895DF9393
:100C9000CF93CDB7DEB7AC970FB6F894DEBF0FBEDB
:100CA000CDBF81E198E098A78FA389EF97E09AA73D
:100CB00089A783E08AA3CE014F9690935D0180932C
:100CC0005C0180915C0190915D0190935F01809344
:100CD0005E0187E690E056D17894EAE2F0E08FEF8B
:100CE00080838EE091E040DF9E8F8D8F00D000D01A
:100CF000EDB7FEB7319680E091E0918380838D8DD2
:100D00009E8D93838283CED10F900F900F900F9082
:100D1000EBE2F0E08D8D9E8D892F9927808380E016
:100D200090E0A8ECB2E4898F9A8FAB8FBC8F698D6D
:100D30007A8D8B8D9C8D20E030E04AE755E480DB96
:100D4000DC01CB018D8B9E8BAF8BB88F6D897E893B
:100D50008F89988D20E030E040E85FE3BCDC882399
:100D60002CF481E090E09C8B8B8B3BC06D897E895D
:100D70008F89988D20E03FEF4FE757E456DC181637
:100D80003CF5698D7A8D8B8D9C8D20E030E040E2C2
:100D900051E456DBDC01CB01BC01CD018DD9DC0176
:100DA000CB019C8B8B8B0FC080E991E09A8B898B58
:100DB00089899A890197F1F79A8B898B8B899C890C
:100DC00001979C8B8B8B8B899C89009769F713C04B
:100DD0006D897E898F89988D6FD9DC01CB019C8BC1
:100DE0008B8B8B899C89988B8F878F8598890197AE
:100DF000F1F7988B8F87EBE2F0E08D8D808380E0B8
:100E000090E0A8ECB2E48B879C87AD87BE876B85AA
:100E10007C858D859E8520E030E04AE755E410DB37
:100E2000DC01CB018F839887A987BA876F8178858A
:100E300089859A8520E030E040E85FE34CDC882338
:100E40002CF481E090E09E838D833BC06F81788598
:100E500089859A8520E03FEF4FE757E4E6DB1816D7
:100E60003CF56B857C858D859E8520E030E040E2F9
:100E700051E4E6DADC01CB01BC01CD011DD9DC0176
:100E8000CB019E838D830FC080E991E09C838B838F
:100E90008B819C810197F1F79C838B838D819E814F
:100EA00001979E838D838D819E81009769F719CF6D
:100EB0006F81788589859A85FFD8DC01CB019E8377
:100EC0008D838D819E819A83898389819A810197FF
:100ED000F1F79A83898305CF1F920F920FB60F9275
:100EE00011242F938F939F93EF93FF939091C000C2
:100EF0002091C600E0915901EF5FEF7180915A0196
:100F0000E81711F482E008C0892F8871E093590135
:100F1000F0E0E95CFE4F208380935B01FF91EF914D
:100F20009F918F912F910F900FBE0F901F9018954A
:100F30001F920F920FB60F9211248F939F93EF93EE
:100F4000FF939091570180915801981769F0E091B3
:100F50005801EF5FEF71E0935801F0E0E95EFE4F5A
:100F600080818093C60005C08091C1008F7D8093F1
:100F7000C100FF91EF919F918F910F900FBE0F9045
:100F80001F9018959C0110925701109258011092D1
:100F9000590110925A0197FF04C082E08093C0006B
:100FA0003F773093C5002093C40088E98093C10047
:100FB00086E08093C20008959091590180915A0172
:100FC000981719F420E031E012C0E0915A01EF5F68
:100FD000EF71E0935A01F0E0E95CFE4F308120911F
:100FE0005B01922F80E0AC01430F511D9A01C901B2
:100FF0000895E2CF0895282F909157019F5F9F7128
:10100000809158019817E1F3E92FF0E0E95EFE4F77
:101010002083909357018091C10080628093C1002A
:101020000895E9DF81E090E008952F923F924F927A
:101030005F926F927F928F929F92AF92BF92CF9268
:10104000DF92EF92FF920F931F93CF93DF93CDB771
:10105000DEB7CA1BDB0B0FB6F894DEBF0FBECDBFE9
:1010600009942A88398848885F846E847D848C84BA
:101070009B84AA84B984C884DF80EE80FD800C81C3
:101080001B81AA81B981CE0FD11D0FB6F894DEBFA6
:101090000FBECDBFED010895EE0FFF1F0590F49137
:1010A000E02D0994A0E0B0E0E7E5F8E0CECFFE0146
:1010B00035966191719180915E0190915F01AF01D0
:1010C00003D02096E2E0DDCFABE0B0E0E9E6F8E067
:1010D000ACCF3C012B015A01FC011782168283819F
:1010E00081FD03C06FEF7FEFB9C19AE0892E1E0129
:1010F0000894211C311CF3012381F20123FD859109
:1011000023FF81912F01882309F4A5C1853239F489
:1011100023FD859123FF81912F01853221F490E0F9
:10112000B301B6D1E8CF982FFF24EE249924FFE134
:10113000FF15D0F09B3269F09C3228F4903259F0C0
:10114000933291F40EC09D3249F0903369F441E03E
:1011500024C052E0F52A84E0F82A28C098E0F92A51
:1011600025C0E0E1FE2A22C0F7FC29C0892F805368
:101170008A3070F4F6FE05C0989C902C1124980ECD
:1011800015C0E89CE02C1124E80EF0E2FF2A0EC006
:101190009E3229F4F6FC5FC140E4F42A07C09C3675
:1011A00019F450E8F52A02C0983649F4F20123FDFB
:1011B000959123FF91912F01992309F0B8CF892FA1
:1011C0008554833018F08052833038F444E050E086
:1011D000A40EB51E5FE359830FC0933631F09337E9
:1011E00079F0933509F052C01FC0F50180818983E1
:1011F00042E050E0A40EB51E610101E010E011C014
:10120000F501C080D180F6FC03C06FEF7FEF02C014
:10121000692D70E042E050E0A40EB51EC6012DD14C
:101220008C015FE7F52213C0F501C080D180F6FC88
:1012300003C06FEF7FEF02C0692D70E042E050E025
:10124000A40EB51EC6010ED18C0150E8F52AF3FE9E
:1012500006C018C080E290E0B3011AD1EA948E2D46
:1012600090E008171907B0F30DC0F601F7FC85915F
:10127000F7FE81916F0190E0B3010AD1E110EA9489
:10128000015010400115110581F7E2C0943611F0AC
:10129000993661F5F7FE08C0F50120813181428160
:1012A000538184E090E00AC0F501808191819C0126
:1012B000442737FD4095542F82E090E0A80EB91ED8
:1012C0009FE6F92257FF09C050954095309521952A
:1012D0003F4F4F4F5F4FE0E8FE2ACA01B901A1011D
:1012E0002AE030E001D1D82ED2183FC0953729F43A
:1012F0001F2D1F7E2AE030E01DC01F2D197F9F3655
:1013000061F0903720F4983509F0A5C00FC09037F0
:1013100039F0983709F09FC004C028E030E00AC0D7
:10132000106114FD146020E130E004C014FD16606B
:1013300020E132E017FF08C0F501608171818281F0
:10134000938144E050E008C0F50180819181BC01A7
:1013500080E090E042E050E0A40EB51EA101C4D0B0
:10136000D82ED2188FE7F82EF122F6FE0BC05EEFD2
:10137000F522D91438F4F4FE07C0F2FC05C08FEE54
:10138000F82202C01D2D01C0192DF4FE0DC0FE0172
:10139000ED0DF11D8081803319F499EEF92208C01A
:1013A0001F5FF2FE05C003C08F2D867809F01F5F16
:1013B0000F2DF3FC13C0F0FE0EC01E1510F09D2C77
:1013C0000AC09D2C9E0C911A1E2D05C080E290E053
:1013D000B3015ED01F5F1E15C8F304C01E1510F4C4
:1013E000E11A01C0EE2404FF0EC080E390E0B301D7
:1013F0004FD002FF1BC001FD03C088E790E00EC084
:1014000088E590E00BC0802F867881F001FF02C054
:101410008BE201C080E2F7FC8DE290E0B30138D0AE
:1014200005C080E390E0B30133D09A94D914C8F397
:10143000DA94F101ED0DF11D808190E0B30128D027
:10144000DD20B1F705C080E290E0B30121D0EA943D
:10145000EE20C9F750CEF30166817781CB012B9640
:10146000E2E1FFCDFC010590615070400110D8F71A
:10147000809590958E0F9F1F0895FC0161507040DC
:1014800001900110D8F7809590958E0F9F1F0895B9
:101490000F931F93CF93DF938C01EB018B8181FF1F
:1014A0001BC082FF0DC02E813F818C819D8128173A
:1014B000390764F4E881F9810193F983E88306C070
:1014C000E885F985802F0995892B31F48E819F81DC
:1014D00001969F838E8302C00FEF1FEFC801DF913B
:1014E000CF911F910F910895FA01AA27283051F149
:1014F000203181F1E8946F936E7F6E5F7F4F8F4F45
:101500009F4FAF4FB1E03ED0B4E03CD0670F781FA3
:10151000891F9A1FA11D680F791F8A1F911DA11D88
:101520006A0F711D811D911DA11D20D009F46894C1
:101530003F912AE0269F11243019305D3193DEF669
:10154000CF010895462F4770405D4193B3E00FD01F
:10155000C9F7F6CF462F4F70405D4A3318F0495D0A
:1015600031FD4052419302D0A9F7EACFB4E0A695ED
:101570009795879577956795BA95C9F7009761050F
:10158000710508959B01AC010A2E06945795479565
:1015900037952795BA95C9F7620F731F841F951F5A
:0815A000A01D0895F894FFCF8F
:0E15A8000D0A255800000000000000000000A1
:00000001FF
