:100000000C943A000C9457000C9457000C94570031
:100010000C9457000C9457000C9457000C94570004
:100020000C9457000C9457000C9457000C945700F4
:100030000C9457000C9457000C9457000C945700E4
:100040000C9457000C9457000C94D6000C940101AA
:100050000C9457000C9457000C9457000C945700C4
:100060000C9457000C9457006364696E6F7073753D
:1000700078585B0011241FBECFEFD8E0DEBFCDBFA4
:1000800011E0A0E0B1E0E8E1FFE002C005900D92D0
:10009000A236B107D9F721E0A2E6B1E001C01D9276
:1000A000AD3AB207E1F70E945F000C948A070C9406
:1000B00000000E945F0108950E9444010895CF93BB
:1000C000DF93CDB7DEB7C054D1090FB6F894DEBFC9
:1000D0000FBECDBF86E3E2E2F1E0DE0112960190B1
:1000E0000D928A95E1F789E0E8E5F1E0DE01D89626
:1000F00001900D928A95E1F7E7EAF1E08EE091E058
:100100009383828380E091E09183808383E390E016
:100110000E942B017894CE0102969F938F930CE15D
:1001200011E01F930F930E947401CE01C8969F9314
:100130008F931F930F930E9474010FB6F894DEBF44
:100140000FBECDBFCE0101967C010FE111E05E0133
:1001500098E3A90EB11C0F2EFCE1CF2EF1E0DF2EAB
:10016000F02DFF92EF921F930F930E9491012FEFBA
:1001700080E792E0215080409040E1F700C000000D
:10018000898190E00E948A010F900F900F900F904C
:1001900089818D3031F7BF92AF92DF92CF920E946A
:1001A00074010F900F900F900F90DBCF1F920F9262
:1001B0000FB60F9211242F938F939F93EF93FF937A
:1001C0008091C0002091C6008871E0916401EF5FCA
:1001D000EF7190916301E91739F0E0936401F0E069
:1001E000E959FE4F208301C082E080936201FF91B4
:1001F000EF919F918F912F910F900FBE0F901F90B5
:1002000018951F920F920FB60F9211248F939F9300
:10021000EF93FF939091660180916501981769F0C3
:10022000E0916501EF5FEF71E0936501F0E0E95760
:10023000FE4F80818093C60005C0E1ECF0E0808134
:100240008F7D8083FF91EF919F918F910F900FBED3
:100250000F901F90189510926601109265011092F0
:10026000640110926301992324F422E02093C000DA
:100270009F779093C5008093C40088E98093C10064
:1002800086E08093C200089590916401809163019B
:10029000981791F0E0916301EF5FEF71E0936301D4
:1002A000F0E0E959FE4F20818091620190E0982FA3
:1002B0008827820F911D089580E091E00895209194
:1002C00066012F5F2F71909165012917E1F3E22FED
:1002D000F0E0E957FE4F808320936601E1ECF0E007
:1002E0008081806280830895A0E0B0E0EAE7F1E0D9
:1002F0000C946307AE014B5F5F4FFA0161917191FE
:10030000AF018091A9019091AA010E94A701E2E0AA
:100310000C947F076091A9017091AA010E949D062B
:100320000895A0E0B0E0E7E9F1E00C946307AE01C6
:100330004B5F5F4FFA0161917191AF018091A7010D
:100340009091A8010E942405E2E00C947F07ABE0A5
:10035000B0E0EDEAF1E00C9453076C017B018A01F7
:10036000FC0117821682838181FFCCC1CE010196E8
:100370003C01F6019381F70193FD859193FF8191F3
:100380007F01882309F4BAC1853239F493FD859140
:1003900093FF81917F01853229F4B60190E00E949C
:1003A0009D06E7CF912C212C312CFFE1F315D8F0DD
:1003B0008B3279F038F4803279F08332A1F4232D36
:1003C00020611DC08D3261F0803369F4232D2160DE
:1003D00016C0832D8260382EE32DE4603E2E2AC0A5
:1003E000F32DF8601DC037FC2DC020ED280F2A30FA
:1003F00040F08E32B9F436FC81C1232D2064322EB8
:1004000019C036FE06C08AE0989E200D1124922E57
:1004100011C0EAE02E9E200D1124222EF32DF06251
:100420003F2E08C08C3621F4832D8068382E02C000
:10043000883641F4F70193FD859193FF81917F0107
:100440008111B3CF982F9F7D9554933028F40C5F82
:100450001F4F9FE399830DC0833631F0833771F0CE
:10046000833509F059C021C0F801808189830E5F6E
:100470001F4F88248394912C530113C02801F2E06C
:100480004F0E511CF801A080B18036FE03C0692DCB
:1004900070E002C06FEF7FEFC5010E9454064C016F
:1004A0008201F32DFF773F2E16C0280122E0420E75
:1004B000511CF801A080B18036FE03C0692D70E0A8
:1004C00002C06FEF7FEFC5010E9449064C01F32D7A
:1004D000F0683F2E820133FC1BC0822D90E088160D
:1004E0009906B0F4B60180E290E00E949D062A943D
:1004F000F4CFF50137FC859137FE81915F01B6019C
:1005000090E00E949D0621102A9421E0821A910811
:100510008114910471F7E8C0843611F0893641F5F1
:10052000F80137FE07C060817181828193810C5F81
:100530001F4F08C060817181072E000C880B990B3A
:100540000E5F1F4FF32DFF763F2E97FF09C090954A
:100550008095709561957F4F8F4F9F4FF0683F2E2C
:100560002AE030E0A3010E94F206882E861845C0DA
:10057000853731F4232D2F7EB22E2AE030E025C0BE
:10058000932D997FB92E8F36C1F018F4883579F004
:10059000B5C0803719F0883721F0B0C0E92FE0618D
:1005A000BE2EB4FE0DC0FB2DF460BF2E09C034FE7C
:1005B0000AC0292F2660B22E06C028E030E005C010
:1005C00020E130E002C020E132E0F801B7FE07C0D0
:1005D00060817181828193810C5F1F4F06C06081B1
:1005E000718180E090E00E5F1F4FA3010E94F20630
:1005F000882E8618FB2DFF773F2E36FE0DC0232D4B
:100600002E7FA22E891458F434FE0BC032FC09C090
:10061000832D8E7EA82E05C0B82CA32C03C0B82C29
:1006200001C0B92CA4FE0FC0FE01E80DF11D8081B0
:10063000803321F49A2D997EA92E09C0A2FE06C00E
:10064000B394B39404C08A2D867809F0B394A3FCC4
:1006500011C0A0FE06C0B21488F4280C922C9B187E
:100660000EC0B21460F4B60180E290E00E949D06D4
:10067000B394F7CFB21418F42B1802C0982C212C85
:10068000A4FE10C0B60180E390E00E949D06A2FE89
:1006900017C0A1FC03C088E790E002C088E590E0A5
:1006A000B6010CC08A2D867859F0A1FE02C08BE2FB
:1006B00001C080E2A7FC8DE2B60190E00E949D0699
:1006C000891438F4B60180E390E00E949D069A9464
:1006D000F7CF8A94F301E80DF11D8081B60190E017
:1006E0000E949D068110F5CF222009F442CEB6016A
:1006F00080E290E00E949D062A94F6CFF601868162
:10070000978102C08FEF9FEF2B96E2E10C946F0769
:1007100020FD09C0FC0123FD05C022FF02C0738338
:10072000628351834083089544FD17C046FD17C07E
:10073000AB01BC01DA01FB01AA0FBB1FEE1FFF1FBB
:100740001094D1F74A0F5B1F6E1F7F1FCB01BA01B8
:10075000660F771F881F991F09C033E001C034E07E
:10076000660F771F881F991F3150D1F7620F711DD7
:10077000811D911D08950F931F93CF93DF938C01DB
:10078000C8010E945F06EC0197FD08C00E94350673
:10079000892BB1F7B801CE010E94D906CE01DF91B5
:1007A000CF911F910F9108958F929F92AF92BF9218
:1007B000EF92FF920F931F93CF93DF938C01D62F6D
:1007C0007A01B22E0E945F069C0133272B3231053D
:1007D00031F02D32310561F48B2D8068B82ED15067
:1007E00011F480E068C0C8010E945F0697FDF9CF50
:1007F000CB2DCD7F2B2D207309F58033F9F4AA245E
:10080000AA94AD0E09F443C0C8010E945F0697FD8B
:100810003EC09C012F7D33272835310549F4C26441
:10082000D250A9F1C8010E945F0697FF07C02FC0F0
:10083000B6FE02C0C26001C0C261DA2D812C912CCB
:10084000540120ED280F283080F0C4FF04C0B80107
:100850000E94D90619C02A3040F0C6FFF8CF2F7D7C
:100860003FEE320F363098F727504C2FC501B401B8
:100870000E9494034B015C01C260D15059F0C80141
:100880000E945F0697FFDDCFC1FD04C0AACF812C77
:10089000912C5401C7FF08C0B094A0949094809408
:1008A000811C911CA11CB11C2C2FB501A401C701F6
:1008B0000E94880381E0DF91CF911F910F91FF90FB
:1008C000EF90BF90AF909F908F900895A0E2B0E01E
:1008D000ECE6F4E00C9456075C01962E7A01F901DF
:1008E0008E010F5F1F4F680180E2D8011D928A952B
:1008F000E9F7D50113968C9080E090E0612C712C83
:1009000030E061E070E083FC259183FE21918F014E
:10091000522E211103C080E090E092C02E3511F4D8
:10092000009751F1432F50E0481759073CF42D35FB
:1009300059F12D3219F4772009F103C0772009F419
:100940006AC0452D469546954695D601A40FB11D22
:10095000452D47708B0102C0000F111F4A95E2F729
:10096000A8015C91452B4C93651459F0561410F472
:100970005394E7CF5A94E5CF31E004C077247394C1
:1009800001C0712C0196BFCF772019F08E81806253
:100990008E83311103C08824839417C0F6019E0111
:1009A0002F5D3F4F8081809581932E173F07D1F7B0
:1009B000F2CFE114F10429F0D7018C93F7013196BD
:1009C0007F019A94812C9920F9F0C5010E945F065D
:1009D00097FD18C0FC01FF2723E0F595E7952A95C0
:1009E000E1F7EC0DFD1D208130E0AC01477055278B
:1009F00002C0359527954A95E2F720FDDACFB5017B
:100A00000E94D906811087CFE114F10411F0D701BB
:100A10001C92C80115C0422F469546954695D601B1
:100A2000A40FB11D422F47708B0102C0000F111F90
:100A30004A95E2F7A8015C91452B4C93622EA2CF18
:100A4000A096EFE00C947207A0E0B0E0EAE2F5E0D7
:100A50000C9456076C01EB015A01FC0117821682B7
:100A6000512CF601E380FE01E3FC8591E3FE8191C8
:100A7000182FEF01882309F4EEC090E00E9435069C
:100A8000892B21F0C6010E94BB03EBCF153241F444
:100A9000FE01E3FC1591E3FE1191EF01153281F4A3
:100AA000C6010E945F0697FDD4C0412F50E09C0113
:100AB000332724173507A9F2B6010E94D906CBC007
:100AC0001A3239F4E3FC1591E3FE1191EF0101E0D4
:100AD00001C000E0F12C20ED210F2A3080F40260EB
:100AE0006F2D70E080E090E040E20E949403F62ECB
:100AF000FE01E3FC1591E3FE1191EF01ECCF01FF44
:100B000003C0F11003C0A7C0FF24FA94183619F0EF
:100B10001C3651F010C0FE01E3FC1591E3FE11916B
:100B2000EF01183641F408600460FE01E3FC159102
:100B3000E3FE1191EF01112309F48DC0612F70E0E4
:100B400088E690E00E943E06892B09F484C000FDEF
:100B500007C0F50180809180C50102965C0102C04A
:100B6000812C912C1E3651F4F6014681578160E0AC
:100B700070E0202FC4010E94880373CF1336A9F4BC
:100B800001FD02C0FF24F394C6010E945F0697FD99
:100B900060C08114910429F0F4018083C40101969E
:100BA0004C01FA94F110F0CF50C01B3559F49E015E
:100BB000A4016F2DC6010E946604EC01892B09F087
:100BC00044C03EC0C6010E94BB0397FD42C01F3611
:100BD00061F128F4143639F1193651F128C0133770
:100BE00071F0153701F123C08114910429F0F4014B
:100BF0006082C40101964C01FA94FF2071F0C60195
:100C00000E945F063C0197FD08C00E943506892BB3
:100C100059F3B601C3010E94D90681149104A9F0C9
:100C2000F401108212C0006203C0006101C00064C0
:100C3000202FA4016F2DC6010E94D403811105C08D
:100C4000F6018381807329F406C000FD0ACF539416
:100C500008CF552019F0852D90E002C08FEF9FEF4F
:100C6000CDB7DEB7EFE00C94720791110C945007EA
:100C7000803219F089508550C8F70895FC0105901D
:100C8000061621F00020D9F7C00108953197CF0151
:100C90000895FC010590615070400110D8F78095CF
:100CA00090958E0F9F1F0895FC0161507040019038
:100CB0000110D8F7809590958E0F9F1F0895CF93C0
:100CC000DF93EC012B8120FF33C026FF0AC02F7B6E
:100CD0002B838E819F8101969F838E838A8190E0F2
:100CE00029C022FF0FC0E881F9818081082E000C05
:100CF000990B009719F420622B831AC03196F9835F
:100D0000E8830EC0EA85FB85099597FF09C02B8112
:100D1000019611F080E201C080E1822B8B8308C034
:100D20002E813F812F5F3F4F3F832E83992702C043
:100D30008FEF9FEFDF91CF9108950F931F93CF9384
:100D4000DF93FB01238121FD03C08FEF9FEF2CC0B8
:100D500022FF16C0468157812481358142175307EF
:100D600044F4A081B1819D012F5F3F4F31832083E7
:100D70008C93268137812F5F3F4F3783268314C0A2
:100D80008B01EC01FB010084F185E02D0995892B95
:100D9000E1F6D80116968D919C91179701961796BA
:100DA0009C938E931697CE01DF91CF911F910F9157
:100DB0000895FB01238120FF12C026FD10C08F3F44
:100DC0003FEF930761F082832F7D20642383268188
:100DD00037812150310937832683992708958FEF72
:100DE0009FEF0895FA01AA27283051F1203181F1AF
:100DF000E8946F936E7F6E5F7F4F8F4F9F4FAF4F23
:100E0000B1E03ED0B4E03CD0670F781F891F9A1F35
:100E1000A11D680F791F8A1F911DA11D6A0F711DE9
:100E2000811D911DA11D20D009F468943F912AE0F5
:100E3000269F11243019305D3193DEF6CF010895DD
:100E4000462F4770405D4193B3E00FD0C9F7F6CF0E
:100E5000462F4F70405D4A3318F0495D31FD4052D6
:100E6000419302D0A9F7EACFB4E0A695979587956C
:100E700077956795BA95C9F700976105710508954B
:100E80009B01AC010A2E06945795479537952795F7
:100E9000BA95C9F7620F731F841F951FA01D08958F
:100EA0009927882708952F923F924F925F926F92D1
:100EB0007F928F929F92AF92BF92CF92DF92EF92EA
:100EC000FF920F931F93CF93DF93CDB7DEB7CA1B6B
:100ED000DB0B0FB6F894DEBF0FBECDBF09942A8896
:100EE000398848885F846E847D848C849B84AA843E
:100EF000B984C884DF80EE80FD800C811B81AA81CB
:100F0000B981CE0FD11D0FB6F894DEBF0FBECDBF95
:080F1000ED010895F894FFCFF4
:100F1800000000010000000000005C00000000006C
:100F280000020000000059000000000025730025A1
:100F380063000D0A57656C636F6D652120536572F8
:100F480069616C20636F6D6D756E69636174696F3B
:100F58006E20776F726C6421210D0A20476F6F64D1
:100F6800204C75636B0D0A00484B4E55203E3E20C1
:020F7800000077
:00000001FF
