:100000000C9446000C945D000C945D000C945D0013
:100010000C945D000C945D000C945D000C945D00EC
:100020000C945D000C945D000C945D000C945D00DC
:100030000C945D000C945D000C945D000C945D00CC
:100040000C945D000C945D000C945D000C945D00BC
:100050000C945D000C945D000C945D000C945D00AC
:100060000C945D000C945D000C945D000C945D009C
:100070000C945D000C945D000C945D000C945D008C
:100080000C945D000C945D000C945D0011241FBE67
:10009000CFEFD0E1DEBFCDBF11E0A0E0B1E0E0EDF9
:1000A000F1E000E00BBF02C007900D92A031B10754
:1000B000D9F70E945F000C94E6000C940000DF92D8
:1000C000EF92FF920F931F93CF93DF938FEF8ABB33
:1000D00087BB20910E0130910F01F0900D01F0943B
:1000E000C90168EE73E00E94D200E62FF0E0E05014
:1000F000FF4FD080C90168EE73E00E94D2009C01DE
:1001000000910C01009564E670E00E94D200E62F99
:10011000F0E0E050FF4FE080C90164E670E00E942B
:10012000D2009C0110910B0110956AE070E00E94D2
:10013000D200C62FD0E040910A014095C9016AE083
:1001400070E00E94D200E82FF0E020E731E0C050DC
:10015000DF4FE050FF4FFBBAD8BA88EC90E0D901EE
:100160001197F1F70197D9F70BBBE8BA88EC90E04B
:10017000D9011197F1F70197D9F71BBB888188BB8B
:1001800088EC90E0D9011197F1F70197D9F74BBBB3
:10019000808188BB88EC90E0D9011197F1F7019735
:1001A000D9F7D9CFAA1BBB1B51E107C0AA1FBB1FA0
:1001B000A617B70710F0A61BB70B881F991F5A95F3
:1001C000A9F780959095BC01CD010895F894FFCFD3
:1001D000C0F9A4B0999282D8809001020408D20498
:00000001FF
