:1000000034C000005AC0000058C0000056C00000B4
:1000100054C0000052C0000050C000004EC000009C
:100020004CC000004AC0000048C0000046C00000AC
:1000300044C0000042C0000040C000003EC00000BC
:100040003CC000003AC0000038C0000036C00000CC
:1000500034C0000032C0000030C000002EC00000DC
:100060002CC000002AC00000A40F11241FBECFEF37
:10007000D8E0DEBFCDBF11E0A0E0B1E0EAE2F1E2FE
:1000800002C005900D92AC32B107D9F711E0ACE295
:10009000B1E001C01D92A633B107E1F710E0CAE656
:1000A000D0E004C02297FE010E948F10C836D1070D
:1000B000C9F70E94B00F0C949310A2CFEF92FF9259
:1000C0000F931F937B018C0120E030E040E05FE460
:1000D0008CD388237CF0C801B70120E030E040E0F9
:1000E0005FE460D1DCD39B01AC0120503040404044
:1000F000504805C0C801B701D2D39B01AC01B9017A
:10010000CA011F910F91FF90EF900895A0E0B0E019
:10011000ECE8F0E00C945610DC012B01FA019C9104
:10012000923008F439C1EB018881823008F433C180
:10013000943069F4843009F02FC111969C91119785
:100140008981981709F428C1ADE1B1E025C1843057
:1001500009F421C18230A9F4923009F01DC19A013D
:10016000AD0188E0EA010990AE01E90109929E0122
:100170008150C1F7E201898111969C918923818385
:1001800008C1923009F407C112962D903C90139744
:10019000EB018A819B811496AD90BD90CD90DC904F
:1001A0001797EC80FD800E811F819101281B390B70
:1001B000B90137FF04C066277727621B730B6032D3
:1001C00071050CF061C0121613066CF53701480179
:1001D000062E04C096948794779467940A94D2F775
:1001E00021E030E040E050E004C0220F331F441F04
:1001F000551F6A95D2F721503040404050402E2183
:100200003F2140235123211531054105510521F09E
:1002100021E030E040E050E079018A01E628F7284B
:10022000082919293CC0232BD1F1260E371E350190
:100230004601062E04C096948794779467940A9496
:10024000D2F721E030E040E050E004C0220F331F3D
:10025000441F551F6A95D2F721503040404050400E
:100260002A213B214C215D212115310541055105F4
:1002700021F021E030E040E050E059016A01A62879
:10028000B728C828D9280BC0821593052CF01C016B
:10029000AA24BB24650103C0EE24FF248701119624
:1002A0009C91D20111968C91981709F445C099231D
:1002B00039F0A80197012A193B094C095D0906C0CC
:1002C000A60195012E193F09400B510B57FD08C09F
:1002D00011823382228224833583468357831DC053
:1002E00081E081833382228288279927DC01821B67
:1002F000930BA40BB50B84839583A683B7830DC0A2
:10030000220F331F441F551F248335834683578391
:1003100082819381019793838283248135814681F1
:100320005781DA01C9010197A109B1098F5F9F4F78
:10033000AF4FBF4328F30BC0918333822282EA0C74
:10034000FB1C0C1D1D1DE482F5820683178383E0D0
:100350008083248135814681578157FF1AC0C901A6
:10036000AA2797FDA095BA2F81709070A070B070E9
:100370005695479537952795822B932BA42BB52B14
:1003800084839583A683B783828193810196938327
:100390008283DF0101C0D201CD01CDB7DEB7E2E13A
:1003A0000C947210A0E2B0E0E8EDF1E00C94621061
:1003B00069837A838B839C832D833E834F83588705
:1003C000E9E0EE2EF12CEC0EFD1ECE010196B701F8
:1003D0008ED38E010F5E1F4FCE010596B80187D3D5
:1003E0008A8991E089278A8BC701B801AE01475EEF
:1003F0005F4F8CDEA7D2A096E6E00C947E10A0E2C0
:10040000B0E0E5E0F2E00C94621069837A838B83BC
:100410009C832D833E834F835887F9E0EF2EF12C88
:10042000EC0EFD1ECE010196B70161D38E010F5E69
:100430001F4FCE010596B8015AD3C701B801AE01CE
:10044000475E5F4F63DE7ED2A096E6E00C947E109E
:10045000A0E2B0E0EEE2F2E00C94561069837A83F9
:100460008B839C832D833E834F835887CE010196D7
:10047000BE01675F7F4F3BD3CE010596BE016F5E25
:100480007F4F35D39985923088F089898230C8F0C2
:10049000943019F4823051F404C0843029F492303D
:1004A00081F48DE191E0C6C0923049F420E09A8554
:1004B0008A89981321E02A87CE010996BBC0823031
:1004C00049F420E09A858A89981321E02A8BCE018D
:1004D0004196B0C02D843E844F8458886D887E88B4
:1004E0008F88988CEE24FF248701AA24BB24650101
:1004F00040E050E060E070E0E0E0F0E0C1018170D9
:100500009070892BE9F0E60CF71C081D191D9A0163
:10051000AB012A0D3B1D4C1D5D1D80E090E0A0E06D
:10052000B0E0E614F7040805190520F481E090E036
:10053000A0E0B0E0BA01A901480F591F6A1F7B1F54
:10054000AA0CBB1CCC1CDD1C97FE08C081E090E00F
:10055000A0E0B0E0A82AB92ACA2ADB2A3196E03204
:10056000F10549F0660C771C881C991C5694479439
:1005700037942794C3CFFA85EA892B893C898B85E8
:100580009C85280F391F2E5F3F4F17C0CA0181700D
:100590009070892B61F016950795F794E79480E0A9
:1005A00090E0A0E0B0E8E82AF92A0A2B1B2B769508
:1005B0006795579547952F5F3F4F77FDE7CF0CC065
:1005C000440F551F661F771F17FD4160EE0CFF1C7F
:1005D000001F111F21503040403090E0590790E03B
:1005E000690790E4790760F32B8F3C8FDB01CA0128
:1005F0008F779070A070B07080349105A105B1051F
:1006000061F447FD0AC0E114F1040105110529F068
:10061000405C5F4F6F4F7F4F40781A8EFE1711F08E
:1006200081E08A8F4D8F5E8F6F8F78A383E0898FF3
:10063000CE01499687D1A096E2E10C947210A8E110
:10064000B0E0E5E2F3E00C945E1069837A838B837B
:100650009C832D833E834F835887B9E0EB2EF12C8A
:10066000EC0EFD1ECE010196B70141D28E010F5E48
:100670001F4FCE010596B8013AD22985223008F4E1
:100680007EC03989323010F4B8017CC08A859A89DD
:1006900089278A87243011F0223031F4231709F09A
:1006A0006EC06DE171E06EC0343039F41D861E8677
:1006B0001F86188A1C861B8604C0323021F484E011
:1006C0008987B7015FC02B853C858B899C89281B56
:1006D000390B3C872B87ED84FE840F851889AD8804
:1006E000BE88CF88D88CEA14FB040C051D0540F4A5
:1006F000EE0CFF1C001F111F215030403C872B8740
:1007000020E030E040E050E080E090E0A0E0B0E4A5
:1007100060E070E0EA14FB040C051D0540F0282B96
:10072000392B4A2B5B2BEA18FB080C091D09B695DF
:10073000A79597958795EE0CFF1C001F111F6F5F03
:100740007F4F6F31710531F7DA01C9018F779070F2
:10075000A070B07080349105A105B10561F427FD4A
:100760000AC0E114F1040105110529F0205C3F4F96
:100770004F4F5F4F20782D873E874F87588BBE01A4
:10078000675F7F4FCB01DED06896EAE00C947A1069
:10079000A8E1B0E0EEECF3E00C94621069837A8398
:1007A0008B839C832D833E834F83588789E0E82E7B
:1007B000F12CEC0EFD1ECE010196B70198D18E01F1
:1007C0000F5E1F4FCE010596B80191D18985823009
:1007D00038F08989823020F0C701B80100D201C009
:1007E0008FEF6896E6E00C947E10A8E1B0E0EBEFA6
:1007F000F3E00C94621069837A838B839C832D834E
:100800003E834F83588789E0E82EF12CEC0EFD1EC5
:10081000CE010196B7016BD18E010F5E1F4FCE0145
:100820000596B80164D18985823038F08989823093
:1008300020F0C701B801D3D101C08FEF6896E6E080
:100840000C947E10A8E1B0E0E8E2F4E00C946210B1
:1008500069837A838B839C832D833E834F83588760
:1008600089E0E82EF12CEC0EFD1ECE010196B701B9
:100870003ED18E010F5E1F4FCE010596B80137D1D4
:100880008985823038F08989823020F0C701B8012B
:10089000A6D101C081E06896E6E00C947E10ACE041
:1008A000B0E0E5E5F4E00C94661069837A838B830D
:1008B0009C83CE010196BE016B5F7F4F18D18D8165
:1008C000823061F1823050F1843021F48E818823AE
:1008D00051F12EC02F81388537FD20C06E812F3118
:1008E00031051CF06623F9F023C08EE190E0821BF5
:1008F000930B29853A854B855C8504C056954795B1
:10090000379527958A95D2F76623B1F05095409593
:10091000309521953F4F4F4F5F4F0EC020E030E0A4
:1009200040E050E009C02FEF3FEF4FEF5FE704C01A
:1009300020E030E040E050E8B901CA012C96E2E046
:100940000C948210DF92EF92FF920F931F93FC01A1
:10095000E480F58006811781D1808081823048F45F
:1009600080E090E0A0E1B0E0E82AF92A0A2B1B2BF6
:10097000A5C0843009F49FC0823021F4EE24FF2406
:10098000870105C0E114F1040105110519F4E0E047
:10099000F0E096C0628173819FEF623879070CF0B6
:1009A0005BC022E83FEF261B370B2A3131052CF0C4
:1009B00020E030E040E050E02AC0B801A701022E5C
:1009C00004C076956795579547950A94D2F781E0CC
:1009D00090E0A0E0B0E004C0880F991FAA1FBB1FE1
:1009E0002A95D2F70197A109B1098E219F21A02351
:1009F000B1230097A105B10521F081E090E0A0E0CE
:100A0000B0E09A01AB01282B392B4A2B5B2BDA0182
:100A1000C9018F779070A070B07080349105A105E6
:100A2000B10539F427FF09C0205C3F4F4F4F5F4F9E
:100A300004C0215C3F4F4F4F5F4FE0E0F0E02030BB
:100A4000A0E03A07A0E04A07A0E45A0710F0E1E06E
:100A5000F0E079018A0127C06038710564F5FB0177
:100A6000E158FF4FD801C7018F779070A070B07028
:100A700080349105A105B10539F4E7FE0DC080E48D
:100A800090E0A0E0B0E004C08FE390E0A0E0B0E030
:100A9000E80EF91E0A1F1B1F17FF05C016950795C4
:100AA000F794E794319687E016950795F794E794C5
:100AB0008A95D1F705C0EE24FF248701EFEFF0E01F
:100AC0006E2F679566276795902F9F77D794DD24C3
:100AD000D7948E2F8695492F462B582F5D29B70125
:100AE000CA011F910F91FF90EF90DF900895FC01D4
:100AF000DB01408151812281622F6F7770E0221FDC
:100B00002227221F9381892F880F822B282F30E0E4
:100B1000991F9927991F11969C93119721153105BB
:100B2000A9F5411551056105710511F482E037C041
:100B300082E89FEF13969C938E9312979A01AB01D4
:100B400067E0220F331F441F551F6A95D1F783E0DA
:100B50008C930DC0220F331F441F551F12968D9189
:100B60009C911397019713969C938E931297203024
:100B700080E0380780E0480780E4580758F314966F
:100B80002D933D934D935C93179708952F3F310517
:100B900079F4411551056105710519F484E08C93D0
:100BA000089564FF03C081E08C9312C01C9210C0B2
:100BB0002F57304013963C932E93129783E08C93DB
:100BC00087E0440F551F661F771F8A95D1F7706421
:100BD00014964D935D936D937C93179708951F938F
:100BE000DC01FB019C91923008F447C08081823087
:100BF00008F443C0943051F411961C91843099F557
:100C00008181682F70E0611B71093FC0843021F041
:100C1000923031F48230B9F18181882389F12DC07D
:100C200011961C9111978230F1F081811817D9F437
:100C300012962D913C91139782819381821793078D
:100C400094F028173907BCF014968D919D910D9062
:100C5000BC91A02D24813581468157812817390701
:100C60004A075B0718F4112341F00AC08217930763
:100C7000A407B50740F4112319F061E070E005C046
:100C80006FEF7FEF02C060E070E0CB011F9108952D
:100C90000F93DF93CF9300D000D000D0CDB7DEB755
:100CA0009A8389836B834C832D830E83E981FA8138
:100CB00089E291E091838083E981FA818B8182834B
:100CC000E981FA818C818683E981FA818D8187832C
:100CD000E981FA818E818087E981FA8188E08187C4
:100CE00026960FB6F894DEBF0FBECDBFCF91DF9131
:100CF0000F910895DF93CF9300D000D0CDB7DEB72A
:100D00009A8389837C836B8314C0E981FA81019083
:100D1000F081E02D20813181EB81FC8140818B814C
:100D20009C8101969C838B8389819A81642FF90130
:100D30000995EB81FC818081882339F70F900F9012
:100D40000F900F90CF91DF910895DF93CF9300D054
:100D50000F92CDB7DEB79A8389836B830E94630FAE
:100D6000E981FA8182810E946F0FE981FA81918580
:100D70008B81892B0E946F0F0E946B0F0F900F9039
:100D80000F90CF91DF910895DF93CF93CDB7DEB76A
:100D9000E3970FB6F894DEBF0FBECDBF9AAB89AB19
:100DA0006BAB8BA9282F246089A99AA9622FCDDF6C
:100DB00080E090E0A0E8BFE38DA79EA7AFA7B8AB07
:100DC0006DA57EA58FA598A92BEA3AEA4AEA50E4D8
:100DD0003FDBDC01CB0189A79AA7ABA7BCA769A51C
:100DE0007AA58BA59CA520E030E040E85FE32ADDF2
:100DF00088231CF481E088A788C069A57AA58BA503
:100E00009CA520E030E04FE753E4C2DC18160CF05C
:100E100074C06DA57EA58FA598A920E030E04AE7B3
:100E200054E40DDCDC01CB018CA39DA3AEA3BFA3D6
:100E30006CA17DA18EA19FA120E030E04AE755E49E
:100E400007DBDC01CB0188A399A3AAA3BBA368A1FC
:100E500079A18AA19BA120E030E040E85FE3F2DCC9
:100E600088232CF481E090E09F8F8E8F3BC068A197
:100E700079A18AA19BA120E03FEF4FE757E488DCEE
:100E800018163CF56CA17DA18EA19FA120E030E059
:100E900040E251E4DDDADC01CB01BC01CD010ED929
:100EA000DC01CB019F8F8E8F0FC080E991E09D8F79
:100EB0008C8F8C8D9D8D0197F1F79D8F8C8F8E8DF2
:100EC0009F8D01979F8F8E8F8E8D9F8D009769F7D5
:100ED00022C068A179A18AA19BA1F0D8DC01CB0135
:100EE0009F8F8E8F8E8D9F8D9B8F8A8F8A8D9B8DEE
:100EF0000197F1F79B8F8A8F0EC069A57AA58BA504
:100F00009CA5DCD8DC01CB0188A788A5898F898DB9
:100F10008A95F1F7898F8BA9282F2B7F89A99AA908
:100F2000622F13DF80E090E0A8E4B2E48D8B9E8B0B
:100F3000AF8BB88F6D897E898F89988D2BEA3AEABD
:100F40004AEA50E485DADC01CB01898B9A8BAB8BC2
:100F5000BC8B69897A898B899C8920E030E040E8E4
:100F60005FE370DC88231CF481E0888B88C069898A
:100F70007A898B899C8920E030E04FE753E408DCD4
:100F800018160CF074C06D897E898F89988D20E0C9
:100F900030E04AE754E453DBDC01CB018C879D87CA
:100FA000AE87BF876C857D858E859F8520E030E08C
:100FB0004AE755E44DDADC01CB0188879987AA8797
:100FC000BB87688579858A859B8520E030E040E88D
:100FD0005FE338DC88232CF481E090E09F838E83EC
:100FE0003BC0688579858A859B8520E03FEF4FE788
:100FF00057E4CEDB18163CF56C857D858E859F8584
:1010000020E030E040E251E423DADC01CB01BC0116
:10101000CD0154D8DC01CB019F838E830FC080E9C2
:1010200091E09D838C838C819D810197F1F79D8355
:101030008C838E819F8101979F838E838E819F8178
:10104000009769F722C0688579858A859B8536D89F
:10105000DC01CB019F838E838E819F819B838A835A
:101060008A819B810197F1F79B838A830EC06989EE
:101070007A898B899C8922D8DC01CB01888B88896D
:10108000898389818A95F1F78983E3960FB6F8946D
:10109000DEBF0FBECDBFCF91DF910895DF93CF9319
:1010A00000D00F92CDB7DEB79A8389836B83898195
:1010B0009A816B814ADE89819A816B8165DE0F900E
:1010C0000F900F90CF91DF910895DF93CF9300D0D1
:1010D00000D000D0CDB7DEB79C838B836D834E8369
:1010E0008D81807F8A838D81882F90E08295929573
:1010F000907F9827807F982789839A818E81292FD6
:10110000282B8B819C81622FC9DF99818E81292FA9
:10111000282B8B819C81622FC1DF26960FB6F89415
:10112000DEBF0FBECDBFCF91DF910895DF93CF9388
:1011300000D00F92CDB7DEB79A8389836B83898104
:101140009A816B8141E0C1DF81E090E00F900F90C8
:101150000F90CF91DF910895DF93CF9300D00F923E
:10116000CDB7DEB79A8389836B8389819A816B813E
:1011700040E0ABDF0F900F900F90CF91DF9108957B
:10118000DF93CF9300D0CDB7DEB79A838983E9810F
:10119000FA8184818160E981FA818483E981FA811D
:1011A0008481282F286089819A81622FD5DF0F9052
:1011B0000F90CF91DF910895DF93CF9300D0CDB7FB
:1011C000DEB79A838983E981FA8184818E7FE98100
:1011D000FA818483E981FA818481282F28608981BA
:1011E0009A81622FB9DF0F900F90CF91DF91089510
:1011F000DF93CF9300D0CDB7DEB79A838983E9819F
:10120000FA8184818260E981FA818483E981FA81AB
:101210008481282F286089819A81622F9DDF0F9019
:101220000F90CF91DF910895DF93CF9300D0CDB78A
:10123000DEB79A838983E981FA8184818460E981B8
:10124000FA818483E981FA818481282F2860898149
:101250009A81622F81DF0F900F90CF91DF910895D7
:10126000DF93CF93CDB7DEB76A970FB6F894DEBFA2
:101270000FBECDBF9A8F898F898D9A8D62E06CDF0A
:1012800080E090E0AAEFB4E48D8B9E8BAF8BB88F9B
:101290006D897E898F89988D2BEA3AEA4AEA50E473
:1012A000D7D8DC01CB01898B9A8BAB8BBC8B69893E
:1012B0007A898B899C8920E030E040E85FE3C2DADC
:1012C00088231CF481E0888B8BC069897A898B899B
:1012D0009C8920E030E04FE753E45ADA18160CF00E
:1012E00076C06D897E898F89988D20E030E04AE74D
:1012F00054E4A5D9DC01CB018C879D87AE87BF87DD
:101300006C857D858E859F8520E030E04AE755E439
:101310009FD8DC01CB0188879987AA87BB8768851E
:1013200079858A859B8520E030E040E85FE38ADAB2
:1013300088232CF481E090E09F838E833DC06885F4
:1013400079858A859B8520E03FEF4FE757E420DAD7
:10135000181644F56C857D858E859F8520E030E0EC
:1013600040E251E475D8DC01CB01BC01CD010E9403
:101370005E00DC01CB019F838E830FC080E991E08A
:101380009D838C838C819D810197F1F79D838C8354
:101390008E819F8101979F838E838E819F8100978D
:1013A00069F724C0688579858A859B850E945E00DF
:1013B000DC01CB019F838E838E819F819B838A83F7
:1013C0008A819B810197F1F79B838A830FC069898A
:1013D0007A898B899C890E945E00DC01CB01888B15
:1013E0008889898389818A95F1F789836A960FB6FE
:1013F000F894DEBF0FBECDBFCF91DF910895DF938C
:10140000CF93CDB7DEB76A970FB6F894DEBF0FBEA5
:10141000CDBF9A8F898F898D9A8D61E09DDE80E0A6
:1014200090E0AAEFB4E48D8B9E8BAF8BB88F6D8963
:101430007E898F89988D2BEA3AEA4AEA50E408D8E7
:10144000DC01CB01898B9A8BAB8BBC8B69897A8948
:101450008B899C8920E030E040E85FE3F3D9882362
:101460001CF481E0888B8DC069897A898B899C897D
:1014700020E030E04FE753E48BD918160CF078C029
:101480006D897E898F89988D20E030E04AE754E4A9
:10149000D6D8DC01CB018C879D87AE87BF876C8552
:1014A0007D858E859F8520E030E04AE755E40E94E7
:1014B0002802DC01CB0188879987AA87BB876885CA
:1014C00079858A859B8520E030E040E85FE3BAD9E2
:1014D00088232CF481E090E09F838E833EC0688552
:1014E00079858A859B8520E03FEF4FE757E450D907
:1014F00018164CF56C857D858E859F8520E030E043
:1015000040E251E40E942802DC01CB01BC01CD0184
:101510000E945E00DC01CB019F838E830FC080E9B7
:1015200091E09D838C838C819D810197F1F79D8350
:101530008C838E819F8101979F838E838E819F8173
:10154000009769F724C0688579858A859B850E9404
:101550005E00DC01CB019F838E838E819F819B8304
:101560008A838A819B810197F1F79B838A830FC0CD
:1015700069897A898B899C890E945E00DC01CB0194
:10158000888B8889898389818A95F1F789836A960E
:101590000FB6F894DEBF0FBECDBFCF91DF91089597
:1015A0000F931F93DF93CF93CDB7DEB7C656D040CE
:1015B0000FB6F894DEBF0FBECDBFFE01EB59FF4F53
:1015C0009183808374D4FE01EB59FF4F0190F08129
:1015D000E02D1382FE01EB59FF4F0190F081E02DC9
:1015E0008781823078F0FE01EB59FF4F0190F08146
:1015F000E02D83818860FE01EB59FF4F0190F0815F
:10160000E02D8383FE01EB59FF4F0190F081E02D27
:1016100080858823C1F0FE01EB59FF4F0190F081D6
:10162000E02D8781813079F4FE01EB59FF4F019065
:10163000F081E02D83818460FE01EB59FF4F019022
:10164000F081E02D8383FE01EF59FF4F80E090E0B1
:10165000A8E4B2E480839183A283B3838E01035A0A
:101660001F4FFE01EF59FF4F60817181828193818D
:1016700020E030E04AE755E40E942802DC01CB017B
:10168000F80180839183A283B383FE01E35AFF4F65
:10169000608171818281938120E030E040E85FE3E6
:1016A000D1D8882344F4FE01E55AFF4F81E090E051
:1016B0009183808363C0FE01E35AFF4F6081718193
:1016C0008281938120E03FEF4FE757E461D81816FD
:1016D0000CF043C0FE01EF59FF4F608171818281A0
:1016E000938120E030E040E251E40E942802DC01D6
:1016F000CB018E01055A1F4FBC01CD010E945E0037
:10170000DC01CB01F801918380831FC0FE01E75A01
:10171000FF4F80E991E091838083FE01E75AFF4FFC
:10172000808191810197F1F7FE01E75AFF4F918384
:101730008083DE01A55ABF4FFE01E55AFF4F80812D
:101740009181019711969C938E93FE01E55AFF4F6C
:10175000808191810097D1F627C08E01055A1F4FD5
:10176000FE01E35AFF4F60817181828193810E9463
:101770005E00DC01CB01F80191838083DE01A95A70
:10178000BF4FFE01E55AFF4F808191818D939C935D
:10179000FE01E95AFF4F808191810197F1F7FE0127
:1017A000E95AFF4F91838083FE01EB59FF4F01906F
:1017B000F081E02D2185FE01EB59FF4F8081918161
:1017C000622FC3DAFE01ED5AFF4F80E090E0AAE7F6
:1017D000B4E480839183A283B3838E01015B1F4FA6
:1017E000FE01ED5AFF4F608171818281938120E07B
:1017F00030E04AE755E40E942802DC01CB01F80101
:1018000080839183A283B383FE01E15BFF4F6081FC
:1018100071818281938120E030E040E85FE312D85B
:10182000882344F4FE01E35BFF4F81E090E0918365
:10183000808364C0FE01E15BFF4F60817181828122
:10184000938120E03FEF4FE757E40E94C80318164A
:101850000CF043C0FE01ED5AFF4F6081718182811F
:10186000938120E030E040E251E40E942802DC0154
:10187000CB018E01035B1F4FBC01CD010E945E00B6
:10188000DC01CB01F801918380831FC0FE01E55B81
:10189000FF4F80E991E091838083FE01E55BFF4F7C
:1018A000808191810197F1F7FE01E55BFF4F918304
:1018B0008083DE01A35BBF4FFE01E35BFF4F8081AE
:1018C0009181019711969C938E93FE01E35BFF4FEC
:1018D000808191810097D1F627C08E01035B1F4F55
:1018E000FE01E15BFF4F60817181828193810E94E3
:1018F0005E00DC01CB01F80191838083DE01A75BF0
:10190000BF4FFE01E35BFF4F808191818D939C93DC
:10191000FE01E75BFF4F808191810197F1F7FE01A6
:10192000E75BFF4F91838083FE01EB59FF4F80817E
:10193000918160E3B3DBFE01EB5BFF4F80E090EA57
:10194000ACE8B5E480839183A283B3838E010F5BFF
:101950001F4FFE01EB5BFF4F60817181828193819C
:101960002BEA3AEA4AEA50E40E942802DC01CB0161
:10197000F80180839183A283B383FE01EF5BFF4F65
:10198000608171818281938120E030E040E85FE3F3
:101990000E942204882334F481E0FE01E05CFF4FC2
:1019A00080839DC0FE01EF5BFF4F6081718182816A
:1019B000938120E030E04FE753E40E94C8031816FB
:1019C0000CF07EC0FE01EB5BFF4F60817181828174
:1019D000938120E030E04AE754E40E941F03DC01D9
:1019E000CB018CAF9DAFAEAFBFAF6CAD7DAD8EAD5B
:1019F0009FAD20E030E04AE755E40E942802DC0178
:101A0000CB0188AF99AFAAAFBBAF68AD79AD8AAD56
:101A10009BAD20E030E040E85FE30E942204882391
:101A20002CF481E090E09FAB8EAB3FC068AD79AD08
:101A30008AAD9BAD20E03FEF4FE757E40E94C8031B
:101A400018164CF56CAD7DAD8EAD9FAD20E030E04D
:101A500040E251E40E942802DC01CB01BC01CD012F
:101A60000E945E00DC01CB019FAB8EAB0FC080E912
:101A700091E09DAB8CAB8CA99DA90197F1F79DAB33
:101A80008CAB8EA99FA901979FAB8EAB8EA99FA906
:101A9000009769F72DC068AD79AD8AAD9BAD0E9406
:101AA0005E00DC01CB019FAB8EAB8EA99FA99BABE7
:101AB0008AAB8AA99BA90197F1F79BAB8AAB18C0A7
:101AC000FE01EF5BFF4F60817181828193810E94F3
:101AD0005E00DC01CB01FE01E05CFF4F8083FE0174
:101AE000E05CFF4F808189AB89A98A95F1F789ABCA
:101AF000FE01EB59FF4F8081918160E3CFDA80E0F6
:101B000090EAACE8B5E48DA79EA7AFA7B8AB6DA5EA
:101B10007EA58FA598A92BEA3AEA4AEA50E40E94EA
:101B20002802DC01CB0189A79AA7ABA7BCA769A5AE
:101B30007AA58BA59CA520E030E040E85FE30E94F9
:101B4000220488231CF481E088A791C069A57AA5A6
:101B50008BA59CA520E030E04FE753E40E94C8032A
:101B600018160CF07BC06DA57EA58FA598A920E066
:101B700030E04AE754E40E941F03DC01CB018CA350
:101B80009DA3AEA3BFA36CA17DA18EA19FA120E0C8
:101B900030E04AE755E40E942802DC01CB0188A32B
:101BA00099A3AAA3BBA368A179A18AA19BA120E0C4
:101BB00030E040E85FE30E94220488232CF481E0B7
:101BC00090E09F8F8E8F3FC068A179A18AA19BA1D1
:101BD00020E03FEF4FE757E40E94C80318164CF58A
:101BE0006CA17DA18EA19FA120E030E040E251E4F4
:101BF0000E942802DC01CB01BC01CD010E945E00E5
:101C0000DC01CB019F8F8E8F0FC080E991E09D8F0B
:101C10008C8F8C8D9D8D0197F1F79D8F8C8F8E8D84
:101C20009F8D01979F8F8E8F8E8D9F8D009769F767
:101C300024C068A179A18AA19BA10E945E00DC0159
:101C4000CB019F8F8E8F8E8D9F8D9B8F8A8F8A8DDC
:101C50009B8D0197F1F79B8F8A8F0FC069A57AA59D
:101C60008BA59CA50E945E00DC01CB0188A788A5FE
:101C7000898F898D8A95F1F7898FFE01EB59FF4F86
:101C80008081918160E30ADA80E090E0A6E1B3E42C
:101C90008D8B9E8BAF8BB88F6D897E898F89988D48
:101CA0002BEA3AEA4AEA50E40E942802DC01CB011E
:101CB000898B9A8BAB8BBC8B69897A898B899C8940
:101CC00020E030E040E85FE30E94220488231CF417
:101CD00081E0888B91C069897A898B899C8920E011
:101CE00030E04FE753E40E94C80318160CF07BC0A5
:101CF0006D897E898F89988D20E030E04AE754E431
:101D00000E941F03DC01CB018C879D87AE87BF87B4
:101D10006C857D858E859F8520E030E04AE755E41F
:101D20000E942802DC01CB0188879987AA87BB879C
:101D3000688579858A859B8520E030E040E85FE30F
:101D40000E94220488232CF481E090E09F838E83FC
:101D50003FC0688579858A859B8520E03FEF4FE706
:101D600057E40E94C80318164CF56C857D858E8556
:101D70009F8520E030E040E251E40E942802DC012F
:101D8000CB01BC01CD010E945E00DC01CB019F8331
:101D90008E830FC080E991E09D838C838C819D812F
:101DA0000197F1F79D838C838E819F8101979F839B
:101DB0008E838E819F81009769F724C0688579851D
:101DC0008A859B850E945E00DC01CB019F838E8308
:101DD0008E819F819B838A838A819B810197F1F702
:101DE0009B838A830FC069897A898B899C890E9429
:101DF0005E00DC01CB01888B8889898389818A9583
:101E0000F1F78983FE01EB59FF4F8081918160E2F8
:101E100045D9FE01EB59FF4F0190F081E02D838100
:101E2000282F2062FE01EB59FF4F80819181622FA4
:101E300093D9FE01EB59FF4F0190F081E02D84E032
:101E40008483FE01EB59FF4F80819181EDD9FE0122
:101E5000EB59FF4F80819181D2DAFE01EB59FF4FA0
:101E60000190F081E02D82E08583FE01EB59FF4F68
:101E70000190F081E02D8581282F2460FE01EB592F
:101E8000FF4F80819181622F67D9FE01EB59FF4F8F
:101E900080819181E5D9CA59DF4F0FB6F894DEBF32
:101EA0000FBECDBFCF91DF911F910F91089580E2BA
:101EB0008093B800ECEBF0E080818460808385E360
:101EC0008A95F1F7089584EA8093BC008091BC0064
:101ED00087FFFCCF089584E98093BC000895982F74
:101EE0008091BC0087FFFCCF9093BB0084E8809377
:101EF000BC008091BC0087FFFCCF08950F93DF9357
:101F0000CF9300D000D0CDB7DEB79A8389837C838E
:101F10006B8389819A818130910571F48B819C81D9
:101F20002FEF8F3F920741F48CE291E060E440E1B3
:101F300022E000E00E9448060F900F900F900F9053
:101F4000CF91DF910F910895DF93CF93CDB7DEB797
:101F500081E090E06FEF7FEFD1DFCF91DF910895C7
:101F6000DF93CF93CDB7DEB72F970FB6F894DEBFD0
:101F70000FBECDBF8CE291E013DB81E08F878CE256
:101F800091E036D98F85882379F08CE291E037DAB9
:101F90008CE291E020E031E0B9010E947A068CE207
:101FA00091E00AD91F860FC08CE291E028DA8CE21A
:101FB00091E020E131E0B9010E947A068CE291E0E3
:101FC000DFD881E08F8780E090E0AAE7B5E48B87D7
:101FD0009C87AD87BE876B857C858D859E8520E03F
:101FE00030E04AE755E40E942802DC01CB018F83F0
:101FF0009887A987BA876F81788589859A8520E037
:1020000030E040E85FE30E94220488232CF481E062
:1020100090E09E838D833FC06F81788589859A8506
:1020200020E03FEF4FE757E40E94C80318164CF535
:102030006B857C858D859E8520E030E040E251E413
:102040000E942802DC01CB01BC01CD010E945E0090
:10205000DC01CB019E838D830FC080E991E09C83DE
:102060008B838B819C810197F1F79C838B838D817E
:102070009E8101979E838D838D819E81009769F754
:1020800081CF6F81788589859A850E945E00DC0109
:10209000CB019E838D838D819E819A8389838981E3
:1020A0009A810197F1F79A8389836CCF2F923F929F
:1020B0004F925F926F927F928F929F92AF92BF9258
:1020C000CF92DF92EF92FF920F931F93CF93DF9304
:1020D000CDB7DEB7CA1BDB0B0FB6F894DEBF0FBE61
:1020E000CDBF09942A88398848885F846E847D84AE
:1020F0008C849B84AA84B984C884DF80EE80FD80B0
:102100000C811B81AA81B981CE0FD11D0FB6F89425
:10211000DEBF0FBECDBFED010895EE0FFF1F05908E
:0A212000F491E02D0994F894FFCF2C
:10212A004E6F20637572736F7220626C696E6B00FA
:10213A00437572736F7220626C696E6B00000000E7
:0C214A00000000000000000000960800EB
:00000001FF
