:100000000C9434000C9451000C9451000C94510049
:100010000C9451000C9451000C9451000C9451001C
:100020000C9451000C9451000C9451000C9451000C
:100030000C9451000C9451000C9451000C945100FC
:100040000C9451000C9451000C9451000C945100EC
:100050000C9451000C9451000C9451000C945100DC
:100060000C9451000C94510011241FBECFEFD8E026
:10007000DEBFCDBF12E0A0E0B1E0E8EDFAE002C0E3
:1000800005900D92A235B107D9F712E0A2E5B2E0D2
:1000900001C01D92A93AB107E1F70E9462010C94D8
:1000A0006A050C94000080E480937C0087E88093CC
:1000B0007A00089590917C00987F90937C009091B5
:1000C0007C008770892B80937C0080917A0080640B
:1000D00080937A0080917A0084FFFCCF80917A002F
:1000E000806180937A002091780030917900C90175
:1000F00008959AB1906F9AB98295807F8BB90895CF
:1001000000D080E091E0EDB7FEB7928381830E943A
:100110006C0286E191E0EDB7FEB7928381830E9485
:100120006C028CE291E0EDB7FEB7928381830E946E
:100130006C0282E491E0EDB7FEB7928381830E9466
:100140006C0287E591E0EDB7FEB7928381830E9450
:100150006C0284E691E0EDB7FEB7928381830E9442
:100160006C020F900F9008958FE691E00E9481023B
:100170008091A3029091A4020E942A0280935202CD
:1001800000D000D0EDB7FEB731962EE931E0ADB723
:10019000BEB712963C932E931197828313820E94CE
:1001A0006C0220ED37E00F900F900F900F9040E918
:1001B00051E0CA010197F1F721503040D1F79091F9
:1001C0005202913739F483EA91E00E94810221E0E2
:1001D00030E008C08AB1806F8AB99295907F9BB950
:1001E00020E030E0C90108951F9300D084EB91E036
:1001F000ADB7BEB712969C938E9311970E946C0276
:100200000F900F908091A3029091A4020E942A0265
:100210008093520200D000D0EDB7FEB731962EE9A0
:1002200031E0ADB7BEB712963C932E9311978283FF
:1002300013820E946C0220ED37E00F900F900F9018
:100240000F9040E951E0CA010197F1F72150304089
:10025000D1F710915202113771F400D087EE91E07E
:10026000EDB7FEB7928381830E946C0221E030E0FB
:100270000F900F9024C0105310935202812F0E94B0
:100280005A0000D000D000D0EDB7FEB7319625EF70
:1002900031E0ADB7BEB712963C932E9311971283FF
:1002A0001382958384830E946C0220E030E0EDB7D6
:1002B000FEB736960FB6F894FEBF0FBEEDBFC9016C
:1002C0001F910895EF92FF920F931F93CF93DF93A7
:1002D00060E875E280E090E00E94E9010E9453002E
:1002E00086E392E09093A6028093A50284E492E0D4
:1002F0009093A4028093A30284E092E00E94810282
:1003000082E1E82E82E0F82E0EE911E0C0E9D1E0AA
:100310000E94800000D0ADB7BEB71296FC92EE925C
:1003200011970E946C020F900F900E9423028093FD
:10033000520200D000D0EDB7FEB73196ADB7BEB7D0
:1003400012961C930E931197828313820E946C0263
:1003500080ED97E00F900F900F900F90FE01319776
:10036000F1F70197D9F780915202823379F0833304
:1003700018F4813349F505C0813569F0813721F5DD
:100380000AC00E94B400892BE1F3C2CF0E94F4009E
:10039000892BE1F3BDCF00D083E292E0EDB7FEB749
:1003A000928381830E946C028AB1806F8AB980E453
:1003B0008BB90F900F9080E090E0DF91CF911F916B
:1003C0000F91FF90EF90089584E392E00E948102E4
:1003D0009FCF9B01AC011092C00088E18093C100C7
:1003E0008091C20084608093C2008091C2008260CC
:1003F0008093C2001092C50020308BE4380780E063
:10040000480780E0580779F0203082EC380781E017
:10041000480780E0580749F0205835424040504096
:1004200031F487E605C08FE203C088E001C08FE5A4
:100430008093C4000895982F8091C00085FFFCCF61
:100440009093C60008958091C00087FFFCCF8091F3
:10045000C6000895CF93DF93EC014B8140FF1AC093
:1004600046FF0AC04F7B4B838E819F8101969F83FD
:100470008E838A81282F2BC042FF13C0E881F98127
:100480008081282F332727FD30952115310529F448
:1004900040624B832FEF3FEF1BC03196F983E88317
:1004A00011C0EA85FB85CE0109959C0197FF0AC022
:1004B0009B812F5F3F4F11F080E201C080E1892BCB
:1004C0008B83E8CF8E819F8101969F838E8330E05E
:1004D000C901DF91CF910895A0E0B0E0E2E7F2E03A
:1004E0000C944305FE013596619171918091A502AE
:1004F0009091A602AF010E94B6022096E2E00C9411
:100500005F050F931F93CF93DF938C01E091A502BA
:10051000F091A602838181FF21C0C0E0D0E00DC030
:10052000E091A502F091A60220853185BF01F90175
:100530000995892B11F0CFEFDFEFF80181918F0141
:10054000882371F7E091A502F091A60220853185FC
:100550008AE0BF01F9010995892B11F0CFEFDFEF98
:10056000CE01DF91CF911F910F910895ABE0B0E0E4
:10057000ECEBF2E00C9433053C012B015A01FC0139
:1005800017821682838181FD03C06FEF7FEFC6C1A2
:100590009AE0892E1E010894211C311CF30123814D
:1005A000F20123FD859123FF81912F01882309F416
:1005B000B2C1853239F423FD859123FF81912F014A
:1005C000853229F490E0B3010E94A904E7CF982F67
:1005D000FF24EE249924FFE1FF15D0F09B3269F04F
:1005E0009C3228F4903259F0933291F40EC09D322F
:1005F00049F0903369F441E024C052E0F52A84E0E8
:10060000F82A28C098E0F92A25C0E0E1FE2A22C095
:10061000F7FC29C0892F80538A3070F4F6FE05C09C
:10062000989C902C1124980E15C0E89CE02C112465
:10063000E80EF0E2FF2A0EC09E3229F4F6FC6BC1F0
:1006400040E4F42A07C09C3619F450E8F52A02C0A9
:10065000983649F4F20123FD959123FF91912F01E2
:10066000992309F0B8CF892F8554833018F0805230
:10067000833038F444E050E0A40EB51E5FE35983A4
:100680000FC0933631F0933779F0933509F056C0A7
:1006900020C0F5018081898342E050E0A40EB51EA0
:1006A000610101E010E012C0F501C080D180F6FCCC
:1006B00003C06FEF7FEF02C0692D70E042E050E0B1
:1006C000A40EB51EC6010E949E048C015FE7F522B0
:1006D00014C0F501C080D180F6FC03C06FEF7FEF3E
:1006E00002C0692D70E042E050E0A40EB51EC601C4
:1006F0000E9493048C0150E8F52AF3FE07C01AC04B
:1007000080E290E0B3010E94A904EA948E2D90E06B
:1007100008171907A8F30EC0F601F7FC8591F7FE3C
:1007200081916F0190E0B3010E94A904E110EA9465
:10073000015010400115110579F7EAC0943611F007
:10074000993669F5F7FE08C0F501208131814281B3
:10075000538184E090E00AC0F501808191819C0181
:10076000442737FD4095542F82E090E0A80EB91E33
:100770009FE6F92257FF09C0509540953095219585
:100780003F4F4F4F5F4FE0E8FE2ACA01B901A10178
:100790002AE030E00E94D504D82ED21840C0953708
:1007A00029F41F2D1F7E2AE030E01DC01F2D197F68
:1007B0009F3661F0903720F4983509F0ACC00FC037
:1007C000903739F0983709F0A6C004C028E030E02F
:1007D0000AC0106114FD146020E130E004C014FD73
:1007E000166020E132E017FF08C0F50160817181D9
:1007F0008281938144E050E008C0F50180819181BD
:10080000BC0180E090E042E050E0A40EB51EA101E2
:100810000E94D504D82ED2188FE7F82EF122F6FECA
:100820000BC05EEFF522D91438F4F4FE07C0F2FCD9
:1008300005C08FEEF82202C01D2D01C0192DF4FE57
:100840000DC0FE01ED0DF11D8081803319F499EE8C
:10085000F92208C01F5FF2FE05C003C08F2D867805
:1008600009F01F5F0F2DF3FC14C0F0FE0FC01E1522
:1008700010F09D2C0BC09D2C9E0C911A1E2D06C0B5
:1008800080E290E0B3010E94A9041F5F1E15C0F32F
:1008900004C01E1510F4E11A01C0EE2404FF0FC0BD
:1008A00080E390E0B3010E94A90402FF1DC001FD96
:1008B00003C088E790E00EC088E590E00BC0802F71
:1008C000867891F001FF02C08BE201C080E2F7FC64
:1008D0008DE290E0B3010E94A90406C080E390E09D
:1008E000B3010E94A9049A94D914C0F3DA94F101D7
:1008F000ED0DF11D808190E0B3010E94A904DD207F
:10090000A9F706C080E290E0B3010E94A904EA942E
:10091000EE20C1F743CEF30166817781CB012B96A0
:10092000E2E10C944F05FC0105906150704001100C
:10093000D8F7809590958E0F9F1F0895FC01615008
:10094000704001900110D8F7809590958E0F9F1FF1
:1009500008950F931F93CF93DF938C01EB018B814D
:1009600081FF1BC082FF0DC02E813F818C819D8144
:100970002817390764F4E881F9810193F983E88342
:1009800006C0E885F985802F0995892B31F48E8181
:100990009F8101969F838E8302C00FEF1FEFC801D6
:1009A000DF91CF911F910F910895FA01AA27283066
:1009B00051F1203181F1E8946F936E7F6E5F7F4F2C
:1009C0008F4F9F4FAF4FB1E03ED0B4E03CD0670FA8
:1009D000781F891F9A1FA11D680F791F8A1F911DFB
:1009E000A11D6A0F711D811D911DA11D20D009F44B
:1009F00068943F912AE0269F11243019305D31938D
:100A0000DEF6CF010895462F4770405D4193B3E075
:100A10000FD0C9F7F6CF462F4F70405D4A3318F01C
:100A2000495D31FD4052419302D0A9F7EACFB4E0CD
:100A3000A6959795879577956795BA95C9F7009785
:100A40006105710508959B01AC010A2E0694579526
:100A5000479537952795BA95C9F7620F731F841F7D
:100A6000951FA01D08952F923F924F925F926F9213
:100A70007F928F929F92AF92BF92CF92DF92EF922E
:100A8000FF920F931F93CF93DF93CDB7DEB7CA1BAF
:100A9000DB0B0FB6F894DEBF0FBECDBF09942A88DA
:100AA000398848885F846E847D848C849B84AA8482
:100AB000B984C884DF80EE80FD800C811B81AA810F
:100AC000B981CE0FD11D0FB6F894DEBF0FBECDBFDA
:080AD000ED010895F894FFCF39
:100AD8000D0A3D3D3D3D3D3D3D3D3D3D3D3D3D3DA1
:100AE8003D3D3D3D3D000D0A20202020204D6169FF
:100AF8006E204D656E752020202020000D0A2D2DBA
:100B08002D2D2D2D2D2D2D2D2D2D2D2D2D2D2D2D0D
:100B18002D000D0A312E20446973706C61792053C1
:100B280065676D656E74000D0A322E204765742066
:100B3800414443000D0A0A512E2045786974004546
:100B48006E74657220796F7572206E756D6265724C
:100B5800205B70726573732027712720746F20756E
:100B680070706572206D656E755D3A200D002563A5
:100B78000D0A00476F6F64627965207365676D655C
:100B88006E740D000D0A456E746572206368616E9F
:100B98006E656C206E756D626572205B7072657330
:100BA800732027712720746F207570706572206D0F
:100BB800656E755D3A20000D0A476F6F646279654E
:100BC80020414443000D0A43685B25645D203D20B5
:100BD80025640A0048656C6C6F20776F726C64211D
:100BE8000D000D0A43686F6F7365206D656E752083
:100BF8003A20000D0A476F6F64206279652C204DFA
:100C080061696E000D0000000002000000001B0278
:100C180000000000000000010000000000002302A6
:020C28000000CA
:00000001FF
