:1000000034C000005AC0000058C0000056C00000B4
:1000100054C0000052C0000050C000004EC000009C
:100020004CC000004AC0000048C0000046C00000AC
:1000300044C0000042C0000040C000003EC00000BC
:100040003CC000003AC0000038C0000036C00000CC
:1000500034C0000032C0000030C000002EC00000DC
:100060002CC000002AC00000A70811241FBECFEF3B
:10007000D8E0DEBFCDBF11E0A8E0B1E001C01D9225
:10008000AE30B107E1F711E0A0E0B1E0E0E2FCE161
:1000900002C005900D92A830B107D9F710E0CAE66A
:1000A000D0E004C02297FE010E940A0EC836D10794
:1000B000C9F70E94B3080C940E0EA2CFEF92FF92E4
:1000C0000F931F937B018C0120E030E040E05FE460
:1000D0008CD388237CF0C801B70120E030E040E0F9
:1000E0005FE460D1DCD39B01AC0120503040404044
:1000F000504805C0C801B701D2D39B01AC01B9017A
:10010000CA011F910F91FF90EF900895A0E0B0E019
:10011000ECE8F0E00C94D10DDC012B01FA019C918C
:10012000923008F439C1EB018881823008F433C180
:10013000943069F4843009F02FC111969C91119785
:100140008981981709F428C1A0E0B1E025C1843065
:1001500009F421C18230A9F4923009F01DC19A013D
:10016000AD0188E0EA010990AE01E90109929E0122
:100170008150C1F7E201898111969C918923818385
:1001800008C1923009F407C112962D903C90139744
:10019000EB018A819B811496AD90BD90CD90DC904F
:1001A0001797EC80FD800E811F819101281B390B70
:1001B000B90137FF04C066277727621B730B6032D3
:1001C00071050CF061C0121613066CF53701480179
:1001D000062E04C096948794779467940A94D2F775
:1001E00021E030E040E050E004C0220F331F441F04
:1001F000551F6A95D2F721503040404050402E2183
:100200003F2140235123211531054105510521F09E
:1002100021E030E040E050E079018A01E628F7284B
:10022000082919293CC0232BD1F1260E371E350190
:100230004601062E04C096948794779467940A9496
:10024000D2F721E030E040E050E004C0220F331F3D
:10025000441F551F6A95D2F721503040404050400E
:100260002A213B214C215D212115310541055105F4
:1002700021F021E030E040E050E059016A01A62879
:10028000B728C828D9280BC0821593052CF01C016B
:10029000AA24BB24650103C0EE24FF248701119624
:1002A0009C91D20111968C91981709F445C099231D
:1002B00039F0A80197012A193B094C095D0906C0CC
:1002C000A60195012E193F09400B510B57FD08C09F
:1002D00011823382228224833583468357831DC053
:1002E00081E081833382228288279927DC01821B67
:1002F000930BA40BB50B84839583A683B7830DC0A2
:10030000220F331F441F551F248335834683578391
:1003100082819381019793838283248135814681F1
:100320005781DA01C9010197A109B1098F5F9F4F78
:10033000AF4FBF4328F30BC0918333822282EA0C74
:10034000FB1C0C1D1D1DE482F5820683178383E0D0
:100350008083248135814681578157FF1AC0C901A6
:10036000AA2797FDA095BA2F81709070A070B070E9
:100370005695479537952795822B932BA42BB52B14
:1003800084839583A683B783828193810196938327
:100390008283DF0101C0D201CD01CDB7DEB7E2E13A
:1003A0000C94ED0DA0E2B0E0E8EDF1E00C94DD0D71
:1003B00069837A838B839C832D833E834F83588705
:1003C000E9E0EE2EF12CEC0EFD1ECE010196B701F8
:1003D0008ED38E010F5E1F4FCE010596B80187D3D5
:1003E0008A8991E089278A8BC701B801AE01475EEF
:1003F0005F4F8CDEA7D2A096E6E00C94F90DA0E248
:10040000B0E0E5E0F2E00C94DD0D69837A838B8344
:100410009C832D833E834F835887F9E0EF2EF12C88
:10042000EC0EFD1ECE010196B70161D38E010F5E69
:100430001F4FCE010596B8015AD3C701B801AE01CE
:10044000475E5F4F63DE7ED2A096E6E00C94F90D26
:10045000A0E2B0E0EEE2F2E00C94D10D69837A8381
:100460008B839C832D833E834F835887CE010196D7
:10047000BE01675F7F4F3BD3CE010596BE016F5E25
:100480007F4F35D39985923088F089898230C8F0C2
:10049000943019F4823051F404C0843029F492303D
:1004A00081F480E091E0C6C0923049F420E09A8562
:1004B0008A89981321E02A87CE010996BBC0823031
:1004C00049F420E09A858A89981321E02A8BCE018D
:1004D0004196B0C02D843E844F8458886D887E88B4
:1004E0008F88988CEE24FF248701AA24BB24650101
:1004F00040E050E060E070E0E0E0F0E0C1018170D9
:100500009070892BE9F0E60CF71C081D191D9A0163
:10051000AB012A0D3B1D4C1D5D1D80E090E0A0E06D
:10052000B0E0E614F7040805190520F481E090E036
:10053000A0E0B0E0BA01A901480F591F6A1F7B1F54
:10054000AA0CBB1CCC1CDD1C97FE08C081E090E00F
:10055000A0E0B0E0A82AB92ACA2ADB2A3196E03204
:10056000F10549F0660C771C881C991C5694479439
:1005700037942794C3CFFA85EA892B893C898B85E8
:100580009C85280F391F2E5F3F4F17C0CA0181700D
:100590009070892B61F016950795F794E79480E0A9
:1005A00090E0A0E0B0E8E82AF92A0A2B1B2B769508
:1005B0006795579547952F5F3F4F77FDE7CF0CC065
:1005C000440F551F661F771F17FD4160EE0CFF1C7F
:1005D000001F111F21503040403090E0590790E03B
:1005E000690790E4790760F32B8F3C8FDB01CA0128
:1005F0008F779070A070B07080349105A105B1051F
:1006000061F447FD0AC0E114F1040105110529F068
:10061000405C5F4F6F4F7F4F40781A8EFE1711F08E
:1006200081E08A8F4D8F5E8F6F8F78A383E0898FF3
:10063000CE01499687D1A096E2E10C94ED0DA8E198
:10064000B0E0E5E2F3E00C94D90D69837A838B8303
:100650009C832D833E834F835887B9E0EB2EF12C8A
:10066000EC0EFD1ECE010196B70141D28E010F5E48
:100670001F4FCE010596B8013AD22985223008F4E1
:100680007EC03989323010F4B8017CC08A859A89DD
:1006900089278A87243011F0223031F4231709F09A
:1006A0006EC060E071E06EC0343039F41D861E8685
:1006B0001F86188A1C861B8604C0323021F484E011
:1006C0008987B7015FC02B853C858B899C89281B56
:1006D000390B3C872B87ED84FE840F851889AD8804
:1006E000BE88CF88D88CEA14FB040C051D0540F4A5
:1006F000EE0CFF1C001F111F215030403C872B8740
:1007000020E030E040E050E080E090E0A0E0B0E4A5
:1007100060E070E0EA14FB040C051D0540F0282B96
:10072000392B4A2B5B2BEA18FB080C091D09B695DF
:10073000A79597958795EE0CFF1C001F111F6F5F03
:100740007F4F6F31710531F7DA01C9018F779070F2
:10075000A070B07080349105A105B10561F427FD4A
:100760000AC0E114F1040105110529F0205C3F4F96
:100770004F4F5F4F20782D873E874F87588BBE01A4
:10078000675F7F4FCB01DED06896EAE00C94F50DF1
:10079000A8E1B0E0EEECF3E00C94DD0D69837A8320
:1007A0008B839C832D833E834F83588789E0E82E7B
:1007B000F12CEC0EFD1ECE010196B70198D18E01F1
:1007C0000F5E1F4FCE010596B80191D18985823009
:1007D00038F08989823020F0C701B80100D201C009
:1007E0008FEF6896E6E00C94F90DA8E1B0E0EBEF2E
:1007F000F3E00C94DD0D69837A838B839C832D83D6
:100800003E834F83588789E0E82EF12CEC0EFD1EC5
:10081000CE010196B7016BD18E010F5E1F4FCE0145
:100820000596B80164D18985823038F08989823093
:1008300020F0C701B801D3D101C08FEF6896E6E080
:100840000C94F90DA8E1B0E0E8E2F4E00C94DD0DC1
:1008500069837A838B839C832D833E834F83588760
:1008600089E0E82EF12CEC0EFD1ECE010196B701B9
:100870003ED18E010F5E1F4FCE010596B80137D1D4
:100880008985823038F08989823020F0C701B8012B
:10089000A6D101C081E06896E6E00C94F90DACE0C9
:1008A000B0E0E5E5F4E00C94E10D69837A838B8395
:1008B0009C83CE010196BE016B5F7F4F18D18D8165
:1008C000823061F1823050F1843021F48E818823AE
:1008D00051F12EC02F81388537FD20C06E812F3118
:1008E00031051CF06623F9F023C08EE190E0821BF5
:1008F000930B29853A854B855C8504C056954795B1
:10090000379527958A95D2F76623B1F05095409593
:10091000309521953F4F4F4F5F4F0EC020E030E0A4
:1009200040E050E009C02FEF3FEF4FEF5FE704C01A
:1009300020E030E040E050E8B901CA012C96E2E046
:100940000C94FD0DDF92EF92FF920F931F93FC0129
:10095000E480F58006811781D1808081823048F45F
:1009600080E090E0A0E1B0E0E82AF92A0A2B1B2BF6
:10097000A5C0843009F49FC0823021F4EE24FF2406
:10098000870105C0E114F1040105110519F4E0E047
:10099000F0E096C0628173819FEF623879070CF0B6
:1009A0005BC022E83FEF261B370B2A3131052CF0C4
:1009B00020E030E040E050E02AC0B801A701022E5C
:1009C00004C076956795579547950A94D2F781E0CC
:1009D00090E0A0E0B0E004C0880F991FAA1FBB1FE1
:1009E0002A95D2F70197A109B1098E219F21A02351
:1009F000B1230097A105B10521F081E090E0A0E0CE
:100A0000B0E09A01AB01282B392B4A2B5B2BDA0182
:100A1000C9018F779070A070B07080349105A105E6
:100A2000B10539F427FF09C0205C3F4F4F4F5F4F9E
:100A300004C0215C3F4F4F4F5F4FE0E0F0E02030BB
:100A4000A0E03A07A0E04A07A0E45A0710F0E1E06E
:100A5000F0E079018A0127C06038710564F5FB0177
:100A6000E158FF4FD801C7018F779070A070B07028
:100A700080349105A105B10539F4E7FE0DC080E48D
:100A800090E0A0E0B0E004C08FE390E0A0E0B0E030
:100A9000E80EF91E0A1F1B1F17FF05C016950795C4
:100AA000F794E794319687E016950795F794E794C5
:100AB0008A95D1F705C0EE24FF248701EFEFF0E01F
:100AC0006E2F679566276795902F9F77D794DD24C3
:100AD000D7948E2F8695492F462B582F5D29B70125
:100AE000CA011F910F91FF90EF90DF900895FC01D4
:100AF000DB01408151812281622F6F7770E0221FDC
:100B00002227221F9381892F880F822B282F30E0E4
:100B1000991F9927991F11969C93119721153105BB
:100B2000A9F5411551056105710511F482E037C041
:100B300082E89FEF13969C938E9312979A01AB01D4
:100B400067E0220F331F441F551F6A95D1F783E0DA
:100B50008C930DC0220F331F441F551F12968D9189
:100B60009C911397019713969C938E931297203024
:100B700080E0380780E0480780E4580758F314966F
:100B80002D933D934D935C93179708952F3F310517
:100B900079F4411551056105710519F484E08C93D0
:100BA000089564FF03C081E08C9312C01C9210C0B2
:100BB0002F57304013963C932E93129783E08C93DB
:100BC00087E0440F551F661F771F8A95D1F7706421
:100BD00014964D935D936D937C93179708951F938F
:100BE000DC01FB019C91923008F447C08081823087
:100BF00008F443C0943051F411961C91843099F557
:100C00008181682F70E0611B71093FC0843021F041
:100C1000923031F48230B9F18181882389F12DC07D
:100C200011961C9111978230F1F081811817D9F437
:100C300012962D913C91139782819381821793078D
:100C400094F028173907BCF014968D919D910D9062
:100C5000BC91A02D24813581468157812817390701
:100C60004A075B0718F4112341F00AC08217930763
:100C7000A407B50740F4112319F061E070E005C046
:100C80006FEF7FEF02C060E070E0CB011F9108952D
:100C9000DF93CF9300D00F92CDB7DEB79A838983CD
:100CA0006B83E981FA818B818083E981FA811182EA
:100CB000E981FA818FEF8283E981FA818FEF838363
:100CC000E981FA81158214820F900F900F90CF91D5
:100CD000DF910895DF93CF9300D00F92CDB7DEB7A9
:100CE0009A8389836B83E981FA818B818283EBD13B
:100CF000E981FA81808101D2E981FA818281FDD185
:100D0000EAD10F900F900F90CF91DF910895DF936C
:100D1000CF9300D00F92CDB7DEB79A8389836B83D0
:100D20008B818823E1F08B818830C8F4E981FA81D6
:100D30008281282F30E08B81882F90E0A90102C0AA
:100D4000440F551F8A95E2F7CA01E981FA8182832F
:100D5000E981FA81228189819A81622FBBDF0F901C
:100D60000F900F90CF91DF910895DF93CF9300D034
:100D70000F92CDB7DEB79A8389836B838B818823EB
:100D8000E1F08B818830C8F4E981FA818281282FD3
:100D900030E08B81882F90E0A90102C055954795DE
:100DA0008A95E2F7CA01E981FA818283E981FA81B1
:100DB000228189819A81622F8DDF0F900F900F9091
:100DC000CF91DF910895DF93CF9300D00F92CDB7ED
:100DD000DEB79A8389836B83E981FA8192818B8163
:100DE0008927E981FA818283E981FA8122818981D7
:100DF0009A81622F6FDF0F900F900F90CF91DF914C
:100E00000895DF93CF9300D00F92CDB7DEB79A83CA
:100E100089836B838B81883038F0E981FA8181E89E
:100E200090E0958384830FC08B81282F30E081E090
:100E300090E002C0880F991F2A95E2F7282F898138
:100E40009A81622FC0DF0F900F900F90CF91DF91AA
:100E50000895DF93CF9300D000D0CDB7DEB79A834B
:100E600089836B834C838B81883038F0E981FA81E8
:100E700081E890E09583848331C08C818823A9F434
:100E8000E981FA818281482F8B81282F30E081E02F
:100E900090E0022E02C0880F991F0A94E2F7809515
:100EA0008423E981FA81828312C0E981FA818281F7
:100EB000482F8B81282F30E081E090E002C0880F1E
:100EC000991F2A95E2F7842BE981FA818283E981CF
:100ED000FA81228189819A81622FFCDE0F900F9026
:100EE0000F900F90CF91DF910895DF93CF9300D0B3
:100EF000CDB7DEB79A838983E6D0E981FA81808114
:100F00008F5FFBD0F0D0E981FA818183E4D0E98161
:100F1000FA8181810F900F90CF91DF910895DF9337
:100F2000CF93CDB7DEB76A970FB6F894DEBF0FBE8A
:100F3000CDBF9A8F898FBCD080E090E0A0E2B1E471
:100F40008D8B9E8BAF8BB88F6D897E898F89988DA5
:100F50002BEA3AEA4AEA50E47BDADC01CB01898BDE
:100F60009A8BAB8BBC8B69897A898B899C8920E0B1
:100F700030E040E85FE366DC88231CF481E0888B86
:100F800088C069897A898B899C8920E030E04FE7A5
:100F900053E4FEDB18160CF074C06D897E898F89CE
:100FA000988D20E030E04AE754E449DBDC01CB01D6
:100FB0008C879D87AE87BF876C857D858E859F8555
:100FC00020E030E04AE755E443DADC01CB018887D2
:100FD0009987AA87BB87688579858A859B8520E064
:100FE00030E040E85FE32EDC88232CF481E090E0E1
:100FF0009F838E833BC0688579858A859B8520E0A9
:101000003FEF4FE757E4C4DB18163CF56C857D8550
:101010008E859F8520E030E040E251E419DADC0162
:10102000CB01BC01CD014AD8DC01CB019F838E836B
:101030000FC080E991E09D838C838C819D81019715
:10104000F1F79D838C838E819F8101979F838E838F
:101050008E819F81009769F722C0688579858A858E
:101060009B852CD8DC01CB019F838E838E819F8151
:101070009B838A838A819B810197F1F79B838A8373
:101080000EC069897A898B899C8918D8DC01CB01CB
:10109000888B8889898389818A95F1F789836A9603
:1010A0000FB6F894DEBF0FBECDBFCF91DF9108958C
:1010B00080E28093B800ECEBF0E080818460808374
:1010C000459A449A089584EA8093BC008091BC00BC
:1010D00087FFFCCF089585ED8093BC008091BC0014
:1010E00084FDFCCF089584E88093BC008091BC000F
:1010F00087FFFCCF8091BB0008958093BB0084E8FC
:101100008093BC008091BC0087FFFCCF0895DF93E3
:10111000CF9300D000D0CDB7DEB79A8389837C838C
:101120006B8389819A818130910551F48B819C81F7
:101130002FEF8F3F920721F488E091E060E4A8DD73
:101140000F900F900F900F90CF91DF910895DF9344
:10115000CF93CDB7DEB781E090E06FEF7FEFD7DFC1
:10116000CF91DF9108950F931F93DF93CF93CDB766
:10117000DEB7CA57D0400FB6F894DEBF0FBECDBF62
:1011800088E091E0CCDEFE01E758FF4F118210822B
:10119000C4C0FE01E758FF4F208188E091E0622F34
:1011A00040E057DEFE01E359FF4F80E090E0A8ECFD
:1011B000B2E480839183A283B3838E0107591F4FCA
:1011C000FE01E359FF4F608171818281938120E0AC
:1011D00030E04AE755E43CD9DC01CB01F8018083DB
:1011E0009183A283B383FE01E759FF4F6081718130
:1011F0008281938120E030E040E85FE323DB8823B5
:1012000044F4FE01E959FF4F81E090E0918380832F
:1012100062C0FE01E759FF4F608171818281938135
:1012200020E03FEF4FE757E4B3DA18160CF042C066
:10123000FE01E359FF4F608171818281938120E03B
:1012400030E040E251E404D9DC01CB018E010959C0
:101250001F4FBC01CD010E945E00DC01CB01F801F3
:10126000918380831FC0FE01EB59FF4F80E991E01D
:1012700091838083FE01EB59FF4F8081918101971B
:10128000F1F7FE01EB59FF4F91838083DE01A959ED
:10129000BF4FFE01E959FF4F80819181019711965F
:1012A0009C938E93FE01E959FF4F808191810097B5
:1012B000D1F627C08E0109591F4FFE01E759FF4F94
:1012C00060817181828193810E945E00DC01CB018B
:1012D000F80191838083DE01AD59BF4FFE01E959CA
:1012E000FF4F808191818D939C93FE01ED59FF4FBB
:1012F000808191810197F1F7FE01ED59FF4F9183B4
:101300008083DE01A758BF4FFE01E758FF4F808161
:101310009181019611969C938E93FE01E758FF4FA1
:1013200080819181883091050CF433CFFE01E9581A
:10133000FF4F11821082C3C0FE01E958FF4F208188
:1013400088E091E0622F5DDDFE01E15AFF4F80E011
:1013500090E0A8ECB2E480839183A283B3838E01F2
:10136000055A1F4FFE01E15AFF4F60817181828152
:10137000938120E030E04AE755E46AD8DC01CB01F4
:10138000F80180839183A283B383FE01E55AFF4F66
:10139000608171818281938120E030E040E85FE3E9
:1013A00051DA882344F4FE01E75AFF4F81E090E0D0
:1013B0009183808362C0FE01E55AFF4F6081718195
:1013C0008281938120E03FEF4FE757E4E1D918167F
:1013D0000CF042C0FE01E15AFF4F608171818281B1
:1013E000938120E030E040E251E432D8DC01CB01CF
:1013F0008E01075A1F4FBC01CD010E945E00DC0127
:10140000CB01F801918380831FC0FE01E95AFF4F91
:1014100080E991E091838083FE01E95AFF4F80814A
:1014200091810197F1F7FE01E95AFF4F9183808383
:10143000DE01A75ABF4FFE01E75AFF4F808191811D
:10144000019711969C938E93FE01E75AFF4F80817E
:1014500091810097D1F627C08E01075A1F4FFE01D8
:10146000E55AFF4F60817181828193810E945E0005
:10147000DC01CB01F80191838083DE01AB5ABF4FC1
:10148000FE01E75AFF4F808191818D939C93FE016D
:10149000EB5AFF4F808191810197F1F7FE01EB5AE2
:1014A000FF4F91838083DE01A958BF4FFE01E958A9
:1014B000FF4F80819181019611969C938E93FE013E
:1014C000E958FF4F80819181883091050CF434CF29
:1014D00088E091E060E0FEDBFE01EF5AFF4F80E024
:1014E00090E0AAE7B4E480839183A283B3838E0162
:1014F000035B1F4FFE01EF5AFF4F608171818281B4
:10150000938120E030E04AE755E40E942802DC01A4
:10151000CB01F80180839183A283B383FE01E35B57
:10152000FF4F608171818281938120E030E040E84B
:101530005FE388D9882344F4FE01E55BFF4F81E037
:1015400090E09183808363C0FE01E35BFF4F608185
:1015500071818281938120E03FEF4FE757E418D9F2
:1015600018160CF043C0FE01EF5AFF4F60817181E5
:101570008281938120E030E040E251E40E94280221
:10158000DC01CB018E01055B1F4FBC01CD010E9428
:101590005E00DC01CB01F801918380831FC0FE0156
:1015A000E75BFF4F80E991E091838083FE01E75B79
:1015B000FF4F808191810197F1F7FE01E75BFF4FBB
:1015C00091838083DE01A55BBF4FFE01E55BFF4F8A
:1015D00080819181019711969C938E93FE01E55B2A
:1015E000FF4F808191810097D1F627C08E01055B66
:1015F0001F4FFE01E35BFF4F608171818281938108
:101600000E945E00DC01CB01F80191838083DE0142
:10161000A95BBF4FFE01E55BFF4F808191818D93F8
:101620009C93FE01E95BFF4F808191810197F1F767
:10163000FE01E95BFF4F9183808388E091E067E0E2
:1016400041E007DCFE01ED5BFF4F80E090E0AAE7A0
:10165000B4E480839183A283B3838E01015C1F4F26
:10166000FE01ED5BFF4F608171818281938120E0FB
:1016700030E04AE755E40E942802DC01CB01F80182
:1016800080839183A283B383FE01FF966081718181
:101690008281938120E030E040E85FE3D3D8882363
:1016A0002CF481E090E09EAF8DAF45C0FE01FF9627
:1016B000608171818281938120E03FEF4FE757E4A1
:1016C00067D8181664F5FE01ED5BFF4F60817181EC
:1016D0008281938120E030E040E251E40E942802C0
:1016E000DC01CB01BC01CD010E945E00DC01CB011D
:1016F0009EAF8DAF0FC080E991E09CAF8BAF8BADFB
:101700009CAD0197F1F79CAF8BAF8DAD9EAD01976E
:101710009EAF8DAF8DAD9EAD009769F716C0FE01EF
:10172000FF9660817181828193810E945E00DC015D
:10173000CB019EAF8DAF8DAD9EAD9AAF89AF89AD18
:101740009AAD0197F1F79AAF89AFFE01EB58FF4FC1
:101750001182108281C088E091E061E006DB80E0C8
:1017600090E0A8ECB2E48DAB9EABAFABB8AF6DA987
:101770007EA98FA998AD20E030E04AE755E40E94A9
:101780002802DC01CB0189AB9AABABABBCAB69A93E
:101790007AA98BA99CA920E030E040E85FE352D809
:1017A00088232CF481E090E098AB8FA73FC069A913
:1017B0007AA98BA99CA920E03FEF4FE757E40E944C
:1017C000C80318164CF56DA97EA98FA998AD20E025
:1017D00030E040E251E40E942802DC01CB01BC0170
:1017E000CD010E945E00DC01CB0198AB8FA70FC03A
:1017F00080E991E09EA78DA78DA59EA50197F1F7A1
:101800009EA78DA78FA598A9019798AB8FA78FA5A5
:1018100098A9009769F714C069A97AA98BA99CA90E
:101820000E945E00DC01CB0198AB8FA78FA598A921
:101830009CA78BA78BA59CA50197F1F79CA78BA7CD
:10184000DE01AB58BF4FFE01EB58FF4F8081918105
:10185000019611969C938E93FE01EB58FF4F808169
:101860009181873091050CF476CFFE01ED58FF4F42
:101870001182108282C088E091E061E048DA80E065
:1018800090E0A8ECB2E48FA398A7A9A7BAA76FA18C
:1018900078A589A59AA520E030E04AE755E40E94A2
:1018A0002802DC01CB018BA39CA3ADA3BEA36BA13B
:1018B0007CA18DA19EA120E030E040E85FE30E9482
:1018C000220488232CF481E090E09AA389A33FC0EE
:1018D0006BA17CA18DA19EA120E03FEF4FE757E4D3
:1018E0000E94C80318164CF56FA178A589A59AA582
:1018F00020E030E040E251E40E942802DC01CB010C
:10190000BC01CD010E945E00DC01CB019AA389A33A
:101910000FC080E991E098A38F8F8F8D98A10197D8
:10192000F1F798A38F8F89A19AA101979AA389A310
:1019300089A19AA1009769F714C06BA17CA18DA120
:101940009EA10E945E00DC01CB019AA389A389A11C
:101950009AA19E8F8D8F8D8D9E8D0197F1F79E8F11
:101960008D8FDE01AD58BF4FFE01ED58FF4F8081D6
:101970009181019611969C938E93FE01ED58FF4F35
:1019800080819181873091050CF475CFFE01EF586D
:10199000FF4F1182108282C088E091E06FEF13DA6E
:1019A00080E090E0A8ECB2E4898F9A8FAB8FBC8F77
:1019B000698D7A8D8B8D9C8D20E030E04AE755E46F
:1019C0000E942802DC01CB018D8B9E8BAF8BB88FE0
:1019D0006D897E898F89988D20E030E040E85FE353
:1019E0000E94220488232CF481E090E09C8B8B8B56
:1019F0003FC06D897E898F89988D20E03FEF4FE74A
:101A000057E40E94C80318164CF5698D7A8D8B8DAA
:101A10009C8D20E030E040E251E40E942802DC018D
:101A2000CB01BC01CD010E945E00DC01CB019C8B8F
:101A30008B8B0FC080E991E09A8B898B89899A8979
:101A40000197F1F79A8B898B8B899C8901979C8BE5
:101A50008B8B8B899C89009769F714C06D897E896F
:101A60008F89988D0E945E00DC01CB019C8B8B8B53
:101A70008B899C89988B8F878F8598890197F1F73F
:101A8000988B8F87DE01AF58BF4FFE01EF58FF4F95
:101A900080819181019611969C938E93FE01EF585F
:101AA000FF4F80819181883091050CF475CF0BE256
:101AB00010E088E091E019DAF801808380E090E09E
:101AC000AAE7B4E48B879C87AD87BE876B857C854E
:101AD0008D859E8520E030E04AE755E40E9428028B
:101AE000DC01CB018F839887A987BA876F817885BE
:101AF00089859A8520E030E040E85FE30E94220477
:101B000088232CF481E090E09E838D833FC06F8119
:101B1000788589859A8520E03FEF4FE757E40E945A
:101B2000C80318164CF56B857C858D859E8520E055
:101B300030E040E251E40E942802DC01CB01BC010C
:101B4000CD010E945E00DC01CB019E838D830FC01E
:101B500080E991E09C838B838B819C810197F1F7D5
:101B60009C838B838D819E8101979E838D838D8144
:101B70009E81009769F79BCF6F81788589859A85CB
:101B80000E945E00DC01CB019E838D838D819E814E
:101B90009A83898389819A810197F1F79A8389834E
:101BA00086CF2F923F924F925F926F927F928F9249
:101BB0009F92AF92BF92CF92DF92EF92FF920F93DC
:101BC0001F93CF93DF93CDB7DEB7CA1BDB0B0FB6E6
:101BD000F894DEBF0FBECDBF09942A8839884888A3
:101BE0005F846E847D848C849B84AA84B984C88439
:101BF000DF80EE80FD800C811B81AA81B981CE0F30
:101C0000D11D0FB6F894DEBF0FBECDBFED01089514
:101C1000EE0FFF1F0590F491E02D0994F894FFCF8B
:081C20000000000000000000BC
:00000001FF
